:100000000C9462000C948A000C948A000C948A0070
:100010000C948A000C948A000C948A000C948A0038
:100020000C948A000C948A000C948A000C94FD03B2
:100030000C948A000C948A000C948A000C948A0018
:100040000C945B030C948A000C94CB030C94A503D2
:100050000C948A000C948A000C948A000C948A00F8
:100060000C948A000C948A000000000024002700F1
:100070002A0000000000250028002B0000000000DE
:1000800023002600290004040404040404040202DA
:100090000202020203030303030301020408102007
:1000A0004080010204081020010204081020000012
:1000B0000008000201000003040700000000000027
:1000C00000004B0A11241FBECFEFD8E0DEBFCDBF2A
:1000D00013E0A0E0B1E0E8E2F5E102C005900D9286
:1000E000A235B107D9F724E0A2E5B3E001C01D9223
:1000F000A537B207E1F710E0C2E6D0E004C02197CF
:10010000FE010E948C0AC136D107C9F70E940D0674
:100110000C94920A0C940000EF92FF920F931F939D
:10012000CF93DF93FB019C012F5F3F4FDC01A6566D
:10013000BC4F3097A1F480E38C93C90101962656F9
:100140003C4F4BE3F9014083FC01E656FC4F108223
:10015000DF91CF911F910F91FF90EF900895613043
:10016000710511F481E3E8CF9C0105E010E040E067
:10017000C0E1D7E28AE0E82EF12CEC17FD0710F47D
:100180004423A1F0CF01BE010E94780AD901A656EE
:10019000BC4F80E3860F8C936C9FC0016D9F900DC8
:1001A0001124E81BF90B2F5F3F4F41E0CE01B7014F
:1001B0000E94780AEB0101501109F9F6BECF833095
:1001C00081F028F4813099F08230A9F008958730C9
:1001D000A9F08830C9F08430B1F4809180008F7D1F
:1001E00003C0809180008F7780938000089584B54C
:1001F0008F7784BD089584B58F7DFBCF8091B0004B
:100200008F778093B00008958091B0008F7DF9CFF3
:10021000CF93DF93282F30E0F901E255FF4F84910F
:10022000F901E656FF4FD491F901EA57FF4FC49107
:10023000CC23A1F081110E94DF00EC2FF0E0EE0F43
:10024000FF1FE458FF4FA591B491EC91ED2381E09D
:1002500090E009F480E0DF91CF91089580E090E094
:10026000FACF1F93CF93DF93282F30E0F901E255A7
:10027000FF4F8491F901E656FF4FD491F901EA57F7
:10028000FF4FC491CC23A9F0162F81110E94DF00EB
:10029000EC2FF0E0EE0FFF1FEE58FF4FA591B49149
:1002A0008FB7F894EC91111108C0D095DE23DC9340
:1002B0008FBFDF91CF911F910895DE2BF8CFCF93A1
:1002C000DF9390E0FC01E656FF4F24918A579F4F41
:1002D000FC0184918823D1F090E0880F991FFC01E4
:1002E000E859FF4FA591B491FC01EE58FF4FC5911D
:1002F000D49161110EC09FB7F8948C91E22FE095D4
:100300008E238C932881E223E8839FBFDF91CF91D6
:1003100008958FB7F894EC91E22BEC938FBFF6CF52
:10032000AF92BF92CF92DF92EF92FF920F931F9303
:10033000CF93DF936C017B018B01040F151FEB0141
:100340005E01AE18BF08C017D10759F06991D601F8
:10035000ED91FC910190F081E02DC6010995892B6A
:1003600079F7C501DF91CF911F910F91FF90EF9029
:10037000DF90CF90BF90AF900895FC01538D448DD6
:10038000252F30E0842F90E0821B930B541710F040
:10039000CF96089501970895FC01918D828D98174D
:1003A00061F0A28DAE0FBF2FB11D5D968C91928D25
:1003B0009F5F9F73928F90E008958FEF9FEF089556
:1003C000FC01918D828D981731F0828DE80FF11D1F
:1003D000858D90E008958FEF9FEF0895FC01918D3A
:1003E000228D892F90E0805C9F4F821B91098F7333
:1003F0009927089588ED93E00E94EE0121E0892B72
:1004000009F420E0822F089580E090E0892B29F004
:100410000E94FA0181110C9400000895FC01A48D42
:10042000A80FB92FB11DA35ABF4F2C91848D90E016
:1004300001968F739927848FA689B7892C93A089F9
:10044000B1898C91837080648C93938D848D981383
:1004500006C00288F389E02D80818F7D8083089516
:10046000EF92FF920F931F93CF93DF93EC0181E004
:10047000888F9B8D8C8D98131AC0E889F9898081AB
:1004800085FF15C09FB7F894EE89FF896083E889DE
:10049000F98980818370806480839FBF81E090E0D0
:1004A000DF91CF911F910F91FF90EF900895F62E5D
:1004B0000B8D10E00F5F1F4F0F731127E02E8C8DF7
:1004C0008E110CC00FB607FCFACFE889F98980813C
:1004D00085FFF5CFCE010E940E02F1CFEB8DEC0F20
:1004E000FD2FF11DE35AFF4FF0829FB7F8940B8F59
:1004F000EA89FB8980818062CFCFCF93DF93EC01C3
:10050000888D8823B9F0AA89BB89E889F9898C91FB
:1005100085FD03C0808186FD0DC00FB607FCF7CFB7
:100520008C9185FFF2CF808185FFEDCFCE010E94B7
:100530000E02E9CFDF91CF910895F89482E0809385
:100540005E031092600310925F03789480916103C0
:1005500090916203009729F0019790936203809332
:100560006103089590915D03911109C093E0909308
:100570005D0320E137E230935C0320935B0361115C
:100580000CC081110CC080915D03815080935D038C
:100590008823C9F090E080E008958111F4CF809124
:1005A0005B0390915C03019790935C0380935B03E2
:1005B000892B21F083E080935D03ECCF10925D03E3
:1005C00081E090E0089582E090E008952091780322
:1005D00030917903232B21F490937903809378034E
:1005E0000895EF92FF920F931F93CF93DF938C01A7
:1005F000262F660F330BE901E097CA30D10528F5A5
:10060000FC01E080F1808AE08E9DF0018F9DF00D6D
:100610001124CF016AE070E00E94780AE616F7061E
:10062000A1F4CE0FDF1FCE17DF0778F02E0F3F1F8C
:1006300020533109F8013183208380E0DF91CF918D
:100640001F910F91FF90EF90089581E0F7CF8DE01B
:100650000E94080160E0892B09F461E08DE00C94B0
:100660003101282F30E090915A03F901ED5DFE4FE2
:10067000911108C02B5F3E4FD9019C91911106C08A
:10068000873021F061E080810C94310160E0FBCF84
:1006900020916E0330916F03232B21F490936F030D
:1006A00080936E03089542E050E06FE473E088EDBC
:1006B00093E00C9490011F920F920FB60F921124A9
:1006C0002F933F938F939F93AF93BF938091960304
:1006D00090919703A0919803B0919903309195035D
:1006E00023E0230F2D3758F50196A11DB11D20934E
:1006F00095038093960390939703A0939803B093E8
:1007000099038091910390919203A0919303B091EA
:1007100094030196A11DB11D8093910390939203C0
:10072000A0939303B0939403BF91AF919F918F9146
:100730003F912F910F900FBE0F901F90189526E8B4
:10074000230F0296A11DB11DD2CF1F920F920FB69B
:100750000F9211242F933F934F935F936F937F9347
:100760008F939F93AF93BF93EF93FF9388ED93E0A5
:100770000E940E02FF91EF91BF91AF919F918F91D7
:100780007F916F915F914F913F912F910F900FBE8D
:100790000F901F9018951F920F920FB60F92112471
:1007A0002F938F939F93EF93FF93E091E803F09142
:1007B000E9038081E091EE03F091EF0382FD1BC01D
:1007C00090818091F1038F5F8F732091F2038217E4
:1007D00041F0E091F103F0E0E852FC4F958F8093F7
:1007E000F103FF91EF919F918F912F910F900FBE89
:1007F0000F901F9018958081F4CF1F920F920FB623
:100800000F921124EF92FF920F931F932F933F9318
:100810004F935F936F937F938F939F93AF93BF9308
:10082000CF93DF93EF93FF9361E083E10E94310167
:1008300080915A03C1E08C2780935A0360916A0328
:100840001092560380915F0390916003892B81F091
:1008500080917303909174038230910509F403C170
:1008600008F0B9C0009709F4C0C0019709F4E7C0C7
:1008700080915F0390916003892BE9F0F894809157
:100880005F039091600301979093600380935F03EF
:10089000789480915F0390916003892BC1F480E08C
:1008A00090E10E9448030E949D0280915F03909115
:1008B0006003892B61F480915E03882341F08130CD
:1008C00021F482E090E10E9448030E949D02809101
:1008D000560310925603882309F472C180915F0376
:1008E00090916003892B09F46BC187E00E9431036A
:1008F000809157032091610330916203232B09F407
:1009000064C181110FC061E081E10E94310161E0A9
:100910008EE00E94310161E08EE00E945F0181E083
:100920008093570393E6E92E93E0F92E03E211E05A
:10093000C0E0F70181917F01882309F458C18091BB
:100940005E03813009F053C18C2F0E943103CF5FC9
:100950000F5F1F4FC73069F7CFE1D1E00AE613E020
:1009600083E2E82E81E0F82E89910E94080121E0BF
:10097000892B09F420E0F80121938F01EC16FD0684
:1009800099F78091580390915903009709F043C15A
:1009900080915E03813009F430C1823009F436C1A0
:1009A00060E083E10E943101FF91EF91DF91CF91EF
:1009B000BF91AF919F918F917F916F915F914F9177
:1009C0003F912F911F910F91FF90EF900F900FBECD
:1009D0000F901F9018958330910509F4CBC00497B0
:1009E00009F046CF0E949D0243CF80E00E94B202F0
:1009F00081309105E9F0029709F03ACF80917003B8
:100A00009091710381609093710380937003C09300
:100A1000560380E09AE2A5E7B5E1809352039093F4
:100A20005303A0935403B093550383E090E013C0A5
:100A300081E090E00E94480384E090E00CC0C09305
:100A4000560381E00E94B2028130910549F0823064
:100A5000910509F00DCF909374038093730308CF31
:100A600082E090E0E7CF61E082E10E943101CBB10A
:100A7000DBB100E117E2809102019FEF980F9093A4
:100A80000201882319F00115110589F460E082E163
:100A90000E943101012BC9F484E090E0909374032B
:100AA0008093730383E090E00E944803E1CE82E0EC
:100AB0000E940801892BF9F201151105E1F2B19BA1
:100AC000F6CF01501109B19AF2CFC064DF7B61E02B
:100AD00082E10E94310100E117E2809100019091D2
:100AE0000101892B59F10115110541F1DBB9CBB990
:100AF000DBB9CBB9DBB9CBB9DBB9CBB9DBB9CBB996
:100B0000DBB9CBB9DBB9CBB9DBB9CBB9DBB9CBB985
:100B1000DBB9CBB9B19B03C001501109B19A82E096
:100B20000E940801892BC9F2809100019091010176
:100B300001979093010180930001CFCF60E082E1A3
:100B40000E943101012B69F0809170039091710333
:100B50008160909371038093700381E080935603CA
:100B600058CF84E090E0909374038093730385E002
:100B700090E09ACFC093560380917203882329F0A6
:100B80001092720381E090E066CF809152039091C1
:100B90005303A0915403B09155030097A105B105EB
:100BA00061F00197A109B109809352039093530317
:100BB000A0935403B09355035BCE84E090E03ACF0A
:100BC00060E086E00E94310193CE882309F4AACE2A
:100BD00060E081E10E94310160E08EE00E945F01EF
:100BE00060E08EE00E943101109257039BCE60E0DE
:100BF000F80180810E943101AACE0E94270380ED76
:100C000097E09093590380935803CACE0E9427031C
:100C100084E690E0F6CF0197F4CFCF93DF93CDB782
:100C2000DEB728970FB6F894DEBF0FBECDBF78941D
:100C300084B5826084BD84B5816084BD85B58260E1
:100C400085BD85B5816085BD80916E008160809392
:100C50006E001092810080918100826080938100FB
:100C6000809181008160809381008091800081600B
:100C7000809380008091B10084608093B100809166
:100C8000B00081608093B00080917A00846080938E
:100C90007A0080917A00826080937A0080917A0055
:100CA000816080937A0080917A00806880937A00D6
:100CB0001092C100E091E803F091E90382E08083A3
:100CC000E091E403F091E5031082E091E603F091F6
:100CD000E7038FEC80831092F003E091EC03F09136
:100CE000ED0386E08083E091EA03F091EB038081DD
:100CF00080618083E091EA03F091EB03808188605A
:100D00008083E091EA03F091EB0380818068808327
:100D1000E091EA03F091EB0380818F7D808361E0B5
:100D200081E10E945F0161E082E10E945F0161E078
:100D300083E10E945F0103E211E09BE2E92E91E072
:100D4000F92E61E0D8018D918D010E945F01E016BE
:100D5000F106B9F760E082E00E945F0160E083E0A5
:100D60000E945F0160E084E00E945F0160E085E036
:100D70000E945F0161E08DE00E945F0161E08DE013
:100D80000E943101F894109280001092810010921C
:100D900085001092840089EF90E090938900809301
:100DA000880080918100886080938100809181001B
:100DB00083608093810080916F00826080936F00D8
:100DC00078948AEF9FEF9C012B52334059018AE9B6
:100DD000882E83E0982E88ED93E00E94EE0118168D
:100DE00019060CF06CC088ED93E00E94CC012091B4
:100DF0008F03309190032431310508F452C08A30BA
:100E000011F081115CC0609176037091770390E0DE
:100E100080E00E948C00FC01E656FC4F25E4208314
:100E20009C012E5F3F4FFC01E556FC4F8BE3808316
:100E3000F901E656FC4F108268E070E0C9010E949B
:100E40008C00AAE9B3E06FEF7FEF9D012A59334090
:100E50002817390770F4ED91E627F0E0EE0FFF1F39
:100E6000E55DFE4F672F7727208131816227732749
:100E7000ECCF609570950E948C00F40101900020E9
:100E8000E9F7AF014B5953406AE973E088ED93E00D
:100E90000E9490010E9453031092900310928F03BE
:100EA0000EC0F901E658FC4F8A30B1F08823A1F05A
:100EB0002F5F3F4F3093900320938F03808380E018
:100EC00090E0892B09F487CF0E94FA01882309F466
:100ED0007ECF0E9400007BCF108218861F821E8268
:100EE0001D821C821B821A82198210927903109231
:100EF00078033AE7232E33E0332E3101F12CE12C35
:100F000040E2542E10E000E0CC24CA94DC2CD30143
:100F10004D903D01BAE0B4152CF580917803909185
:100F20007903892BF9F4E2E0EE16F10409F4ADC27D
:100F3000E42DEC25F0E0EE0FFF1FE55DFE4FCD2C1C
:100F4000DD2480819181C826D926FBE34F1255C04C
:100F50000F5F1F4F21E0E216F104C9F662E0E62EB2
:100F6000F12CD5CFC094D0940091760310917703E3
:100F700089819A81C816D90609F434C187E090E0C6
:100F80000E94E602B80190E080E00E948C00AC0173
:100F90006091780370917903DC01A656BC4F9C01E7
:100FA0002E5F3F4FFC01E556FC4F6115710509F4BA
:100FB00078C185E48C938BE38083F901E656FC4F7E
:100FC0001082C9010E948C009C012F5F3F4F865602
:100FD0009C4F4BE5DC014C93F901E656FC4FD101E7
:100FE0008D911D01A9014F5F5F4F90EE980F9F35C6
:100FF00008F02EC181939A01F2CF0C3231E0130731
:10100000B9F108F041C00636110509F453C020F5C6
:101010000230110569F158F40115110509F47DC07C
:101020000130110509F486C082E090E080C00436EA
:101030001105F1F005361105B9F7642DCE010396BF
:101040000E94F102882321F085E090E00E94E602F0
:10105000EE24E394F12C5BCF093C110509F4A7C001
:1010600050F40736110509F452CF083C1105E1F69A
:1010700081E090E05CC00B3C1105E1F0F0F20C3C2B
:10108000110509F444CFD0CF023961E0160709F405
:101090003ECF20F50F32A1E01A0709F438CFA8F4AB
:1010A0000D32E1E01E0709F48DC00E32F1E01F079A
:1010B00009F0BACF642DCE0101960E94F102882377
:1010C00009F425CF87E090E032C0003921E0120713
:1010D00079F2013931E0130769F3A6CF063F41E009
:1010E000140709F414CF50F4043F81E0180709F401
:1010F000BFCF053FA1E01A07E9F296CF0935B2E06C
:101100001B07C1F20A35E2E01E0709F400CF0835DB
:10111000F2E01F0709F088CFABCF642DCE01079610
:101120000E94F102882309F4F2CE83E090E00E944D
:10113000E602EDCE23E5421609F44FC0241564F013
:1011400034E4431661F142E54416E1F081E090E0B9
:101150000E94E602542CDBCE66E54616C1F087E518
:10116000481659F0A4E54A12F1CFEE24E394F12C8D
:10117000E4E55E2E08E512E0CACE87E5582E04E6C7
:1011800010E0C5CE02E5502E0CE211E0C0CEEE24F8
:10119000E394F12C16E5512E00E911E0B8CEEE24CF
:1011A000E394F12CA4E45A2E04EF11E0B0CE642DA8
:1011B000CE0105960E94F102882309F4A8CE86E0AC
:1011C00090E0B5CF642DCE0105960E94F1028823F0
:1011D00009F43ECF86E090E039CF53E5552E08EC78
:1011E00010E095CE8F8198858017910721F084E0DB
:1011F00090E00E94E602B3E55B16D9F0E7E55E16E3
:1012000049F0F2E55F12BECE8D819E81049708F40D
:10121000B9CE13C08B819C81029720F085E090E0CD
:101220000E94E602809175038111ACCE89E090E0C6
:10123000A7CE8D819E81079718F086E090E0A0CE22
:101240008B819C81029708F49DCE85E090E098CE3A
:101250008DE58083C901029646565C4F2BE3FA0167
:101260002083FC01E656FC4F1082B6010E948C00E0
:10127000AAE9B3E06FEF7FEF9D012A5933402817A9
:10128000390708F0F8C0ED91E627F0E0EE0FFF1FF8
:10129000E55DFE4F672F7727208131816227732715
:1012A000EBCF5C92C9016BE36083F901E656FC4F1A
:1012B000108263E5561609F486C065159CF0A4E417
:1012C0005A1609F4BBC0B2E55B1609F49DC0209123
:1012D0007603309177032F5F3F4F3093770320934E
:1012E0007603C6CF66E55616A1F0A7E55A1609F1B2
:1012F000B4E55B12ECCF809173039091740360E0CE
:10130000039721F481E08093720361E070E0C901EA
:101310004EC0A3E3B3E09501240F351F4D91C901E1
:101320008A0F9B1F50EE540F5F3508F07DC041932C
:10133000F5CF61E070E080915F0390916003892BAD
:1013400011F470E060E0C9010E948C008C01809172
:101350005E038230A9F02B813C81232B59F1F89454
:1013600080E69AEE9093600380935F0380E395E7B5
:10137000909362038093610381E080935E0378948D
:1013800061E070E080915F0390916003892B11F41C
:1013900070E060E0C8010E948C0061E070E0209184
:1013A000610330916203232B11F470E060E00E942E
:1013B0008C008DCF882321F30E949D0281E090E173
:1013C0000E944803DDCF6D817E810E948C002D81BB
:1013D0003E8160E02730310520F42D593C4FF90162
:1013E000608170E00E948C002D813E8127303105A4
:1013F000C8F461E04B81411101C060E02D593C4FC0
:10140000D9016C9370E0D3CF6D817E810E948C00F6
:101410002D813E812430310528F426593C4FF901B5
:101420006081F0CF60E0EECF2BE32083FC01E65635
:10143000FC4F108221E02093750349CF6091030196
:101440007091040110920401109203010E948C001B
:1014500060916E0370916F0310926F0310926E0390
:101460000E948C006091700370917103109271035F
:10147000109270039CCF609570950E948C00D401EF
:101480000D900020E9F7AD01FDCCBBE34B12B5CDCB
:101490000F5F1F4F3CCDE8EDF3E01382128288EE20
:1014A00093E0A0E0B0E084839583A683B78381E1D5
:1014B00091E09183808385EC90E09587848784EC2C
:1014C00090E09787868780EC90E0918B808B81EC11
:1014D00090E0938B828B82EC90E0958B848B86ECF2
:1014E00090E0978B868B118E128E138E148E08953A
:1014F000AA1BBB1B51E107C0AA1FBB1FA617B7073A
:1015000010F0A61BB70B881F991F5A95A9F7809555
:101510009095BC01CD010895EE0FFF1F0590F49149
:08152000E02D0994F894FFCFBF
:10152800F4010501000101010000000001000000B4
:101538000030029001BD017D02EE01CC01E0010204
:101548000304050708090B0C0F1006000089111287
:10155800239B322446AD573665BF74488CC19D5ACB
:10156800AFD3BE6CCAE5DB7EE9F7F88110080193BA
:10157800331A22A5562C47B7753E64C99C408DDBAB
:10158800BF52AEEDDA64CBFFF976E802218B30105A
:101598000299132667AF763444BD554AADC3BC588B
:1015A8008ED19F6EEBE7FA7CC8F5D983310A20917A
:1015B800121803A7772E66B5543C45CBBD42ACD96B
:1015C8009E508FEFFB66EAFDD874C904428D53160E
:1015D800619F702004A9153227BB364CCEC5DF5E4B
:1015E800EDD7FC6888E1997AABF3BA85520C43973A
:1015F800711E60A1142805B3373A26CDDE44CFDF2B
:10160800FD56ECE9986089FBBB72AA06638F7214D9
:10161800409D512225AB343006B9174EEFC7FE5C0A
:10162800CCD5DD6AA9E3B8788AF19B87730E6295F9
:10163800501C41A3352A24B1163807CFFF46EEDDEA
:10164800DC54CDEBB962A8F99A708B088481951A9D
:10165800A793B62CC2A5D33EE1B7F04008C91952EA
:101668002BDB3A644EED5F766DFF7C899400859B99
:10167800B712A6ADD224C3BFF136E0C1184809D3CA
:101688003B5A2AE55E6C4FF77D7E6C0AA583B41839
:101698008691972EE3A7F23CC0B5D14229CB3850AA
:1016A8000AD91B666FEF7E744CFD5D8BB502A49959
:1016B800961087AFF326E2BDD034C1C3394A28D18A
:1016C8001A580BE77F6E6EF55C7C4D0CC685D71EED
:1016D800E597F42880A1913AA3B3B2444ACD5B566A
:1016E80069DF78600CE91D722FFB3E8DD604C79F19
:1016F800F516E4A9902081BBB332A2C55A4C4BD74A
:10170800795E68E11C680DF33F7A2E0EE787F61CB8
:10171800C495D52AA1A3B03882B193466BCF7A5429
:1017280048DD59622DEB3C700EF91F8FF706E69DD8
:10173800D414C5ABB122A0B9923083C77B4E6AD509
:10174800585C49E33D6A2CF11E780F4D4853574DBC
:10175800485357312E375F3478554E50554C5345C2
:10176800440000000000004D4853574D4853570DA2
:021778000A0065
:00000001FF
