:100000000C9462000C948A000C948A000C948A0070
:100010000C948A000C948A000C948A000C948A0038
:100020000C948A000C948A000C948A000C94CD03E2
:100030000C948A000C948A000C948A000C948A0018
:100040000C942B030C948A000C949B030C94750362
:100050000C948A000C948A000C948A000C948A00F8
:100060000C948A000C948A000000000024002700F1
:100070002A0000000000250028002B0000000000DE
:1000800023002600290004040404040404040202DA
:100090000202020203030303030301020408102007
:1000A0004080010204081020010204081020000012
:1000B0000008000201000003040700000000000027
:1000C0000000700911241FBECFEFD8E0DEBFCDBF06
:1000D00013E0A0E0B1E0E2E7F3E102C005900D9289
:1000E000A235B107D9F724E0A2E5B3E001C01D9223
:1000F000A137B207E1F710E0C2E6D0E004C02197D3
:10010000FE010E94B109C136D107C9F70E946B05F3
:100110000C94B7090C940000EF92FF920F931F9379
:10012000CF93DF93FB019C012F5F3F4FDC01AA5669
:10013000BC4F3097A1F480E38C93C90101962A56F5
:100140003C4F4BE3F9014083FC01EA56FC4F10821F
:10015000DF91CF911F910F91FF90EF900895613043
:10016000710511F481E3E8CF9C0105E010E040E067
:10017000C0E1D7E28AE0E82EF12CEC17FD0710F47D
:100180004423A1F0CF01BE010E949D09D901AA56C6
:10019000BC4F80E3860F8C936C9FC0016D9F900DC8
:1001A0001124E81BF90B2F5F3F4F41E0CE01B7014F
:1001B0000E949D09EB0101501109F9F6BECF833071
:1001C00081F028F4813099F08230A9F008958730C9
:1001D000A9F08830C9F08430B1F4809180008F7D1F
:1001E00003C0809180008F7780938000089584B54C
:1001F0008F7784BD089584B58F7DFBCF8091B0004B
:100200008F778093B00008958091B0008F7DF9CFF3
:10021000CF93DF93282F30E0F901E255FF4F84910F
:10022000F901E656FF4FD491F901EA57FF4FC49107
:10023000CC23A1F081110E94DF00EC2FF0E0EE0F43
:10024000FF1FE458FF4FA591B491EC91ED2381E09D
:1002500090E009F480E0DF91CF91089580E090E094
:10026000FACF1F93CF93DF93282F30E0F901E255A7
:10027000FF4F8491F901E656FF4FD491F901EA57F7
:10028000FF4FC491CC23A9F0162F81110E94DF00EB
:10029000EC2FF0E0EE0FFF1FEE58FF4FA591B49149
:1002A0008FB7F894EC91111108C0D095DE23DC9340
:1002B0008FBFDF91CF911F910895DE2BF8CFCF93A1
:1002C000DF9390E0FC01E656FF4F24918A579F4F41
:1002D000FC0184918823D1F090E0880F991FFC01E4
:1002E000E859FF4FA591B491FC01EE58FF4FC5911D
:1002F000D49161110EC09FB7F8948C91E22FE095D4
:100300008E238C932881E223E8839FBFDF91CF91D6
:1003100008958FB7F894EC91E22BEC938FBFF6CF52
:10032000AF92BF92CF92DF92EF92FF920F931F9303
:10033000CF93DF936C017B018B01040F151FEB0141
:100340005E01AE18BF08C017D10759F06991D601F8
:10035000ED91FC910190F081E02DC6010995892B6A
:1003600079F7C501DF91CF911F910F91FF90EF9029
:10037000DF90CF90BF90AF900895FC01538D448DD6
:10038000252F30E0842F90E0821B930B541710F040
:10039000CF96089501970895FC01918D828D98174D
:1003A00061F0A28DAE0FBF2FB11D5D968C91928D25
:1003B0009F5F9F73928F90E008958FEF9FEF089556
:1003C000FC01918D828D981731F0828DE80FF11D1F
:1003D000858D90E008958FEF9FEF0895FC01918D3A
:1003E000228D892F90E0805C9F4F821B91098F7333
:1003F0009927089584ED93E00E94EE0121E0892B76
:1004000009F420E0822F089580E090E0892B29F004
:100410000E94FA0181110C9400000895FC01A48D42
:10042000A80FB92FB11DA35ABF4F2C91848D90E016
:1004300001968F739927848FA689B7892C93A089F9
:10044000B1898C91837080648C93938D848D981383
:1004500006C00288F389E02D80818F7D8083089516
:10046000EF92FF920F931F93CF93DF93EC0181E004
:10047000888F9B8D8C8D98131AC0E889F9898081AB
:1004800085FF15C09FB7F894EE89FF896083E889DE
:10049000F98980818370806480839FBF81E090E0D0
:1004A000DF91CF911F910F91FF90EF900895F62E5D
:1004B0000B8D10E00F5F1F4F0F731127E02E8C8DF7
:1004C0008E110CC00FB607FCFACFE889F98980813C
:1004D00085FFF5CFCE010E940E02F1CFEB8DEC0F20
:1004E000FD2FF11DE35AFF4FF0829FB7F8940B8F59
:1004F000EA89FB8980818062CFCFCF93DF93EC01C3
:10050000888D8823B9F0AA89BB89E889F9898C91FB
:1005100085FD03C0808186FD0DC00FB607FCF7CFB7
:100520008C9185FFF2CF808185FFEDCFCE010E94B7
:100530000E02E9CFDF91CF910895F89482E0809385
:100540005F031092610310926003789460E082E18F
:100550000E94310180915D0390915E03009729F024
:10056000019790935E0380935D0308952091740337
:1005700030917503232B21F49093750380937403BA
:100580000895EF92FF920F931F93CF93DF938C0107
:10059000262F660F330BE901E097CA30D10528F505
:1005A000FC01E080F1808AE08E9DF0018F9DF00DCE
:1005B0001124CF016AE070E00E949D09E616F7065B
:1005C000A1F4CE0FDF1FCE17DF0778F02E0F3F1FED
:1005D00020533109F8013183208380E0DF91CF91EE
:1005E0001F910F91FF90EF90089581E0F7CF8DE07C
:1005F0000E94080160E0892B09F461E08DE00C9411
:100600003101282F30E090915C03F901EE5DFE4F3F
:10061000911108C02C5F3E4FD9019C91911106C0E9
:10062000873021F061E080810C94310160E0FBCFE4
:1006300020916D0330916E03232B21F490936E0370
:1006400080936D03089542E050E06EE473E084ED22
:1006500093E00C9490011F920F920FB60F92112409
:100660002F933F938F939F93AF93BF938091920368
:1006700090919303A0919403B091950330919103CD
:1006800023E0230F2D3758F50196A11DB11D2093AE
:1006900091038093920390939303A0939403B09358
:1006A000950380918D0390918E03A0918F03B0915B
:1006B00090030196A11DB11D80938D0390938E032D
:1006C000A0938F03B0939003BF91AF919F918F91AF
:1006D0003F912F910F900FBE0F901F90189526E815
:1006E000230F0296A11DB11DD2CF1F920F920FB6FC
:1006F0000F9211242F933F934F935F936F937F93A8
:100700008F939F93AF93BF93EF93FF9384ED93E009
:100710000E940E02FF91EF91BF91AF919F918F9137
:100720007F916F915F914F913F912F910F900FBEED
:100730000F901F9018951F920F920FB60F921124D1
:100740002F938F939F93EF93FF93E091E403F091A6
:10075000E5038081E091EA03F091EB0382FD1BC089
:1007600090818091ED038F5F8F732091EE0382174C
:1007700041F0E091ED03F0E0EC52FC4F958F809357
:10078000ED03FF91EF919F918F912F910F900FBEED
:100790000F901F9018958081F4CF1F920F920FB683
:1007A0000F921124EF92FF920F931F932F933F9379
:1007B0004F935F936F937F938F939F93AF93BF9369
:1007C000CF93DF93EF93FF9361E083E10E943101C8
:1007D00080915C0321E0822780935C033091690360
:1007E000109258038091600390916103892B81F0EE
:1007F00080915603909157038230910509F402C10C
:1008000008F0B2C0009709F4B9C0019709F4E4C038
:100810008091600390916103892BE9F0F8948091B5
:10082000600390916103019790936103809360034B
:1008300078948091600390916103892BB1F480E0FA
:1008400090E10E9418030E949D02809160039091A4
:100850006103892B51F480915F03813031F482E090
:1008600090E10E9418030E949D028091580310920B
:100870005803882309F402C18091600390916103B9
:10088000892B09F4FBC087E00E9401038091590382
:1008900020915D0330915E03232B09F4F4C0811194
:1008A0000FC061E081E10E94310161E08EE00E94B1
:1008B000310161E08EE00E945F0181E08093590385
:1008C00092E6E92E93E0F92E02E211E0C0E0F70192
:1008D00081917F01882309F4E8C08C2F0E940103D5
:1008E000CF5F0F5F1F4FC73091F7CEE1D1E009E630
:1008F00013E082E2E82E81E0F82E89910E9408013F
:1009000021E0892B09F420E0F80121938F01EC16F6
:10091000FD0699F780915A0390915B03009709F0C7
:10092000D8C080915F03813009F4C5C0823009F4DA
:10093000CBC060E083E10E943101FF91EF91DF9134
:10094000CF91BF91AF919F918F917F916F915F9167
:100950004F913F912F911F910F91FF90EF900F902A
:100960000FBE0F901F9018958330910509F463C056
:10097000049709F04DCF0E949D024ACF31111FC04C
:1009800080916F03909170038160909370038093C6
:100990006F0381E08093580380E09AE2A5E7B5E118
:1009A0008093520390935303A0935403B093550341
:1009B00083E090E0909357038093560329CF809172
:1009C000000190910101009781F581E090E00E9483
:1009D000180384E090E0EECF20935803332349F0CE
:1009E00080E197E2909301018093000182E090E022
:1009F000E1CF80910001909101010097B1F482E074
:100A000090E0E5CF3111BCCF8091000190910101C0
:100A1000009759F484E090E0909357038093560335
:100A200083E090E00E941803F3CE019790930101B8
:100A300080930001EDCE2093580380915203909152
:100A40005303A0915403B09155030097A105B1053C
:100A500061F00197A109B109809352039093530368
:100A6000A0935403B0935503D3CE80E197E29093C3
:100A700001018093000181E090E09CCF60E086E07E
:100A80000E94310103CF882309F41ACF60E081E18D
:100A90000E94310160E08EE00E94310160E08EE052
:100AA0000E945F01109259030BCF60E0F801808132
:100AB0000E94310115CF0E94F70280ED97E09093DC
:100AC0005B0380935A0335CF0E94F70284E690E0DF
:100AD000F6CF0197F4CFCF93DF93CDB7DEB728974A
:100AE0000FB6F894DEBF0FBECDBF789484B5826098
:100AF00084BD84B5816084BD85B5826085BD85B5C2
:100B0000816085BD80916E00816080936E0010923F
:100B100081008091810082608093810080918100BA
:100B2000816080938100809180008160809380004B
:100B30008091B10084608093B1008091B0008160A9
:100B40008093B00080917A00846080937A008091D5
:100B50007A00826080937A0080917A00816080932D
:100B60007A0080917A00806880937A001092C100A8
:100B7000E091E403F091E50382E08083E091E003FB
:100B8000F091E1031082E091E203F091E3038FEC36
:100B900080831092EC03E091E803F091E90386E092
:100BA0008083E091E603F091E70380818061808398
:100BB000E091E603F091E703808188608083E09113
:100BC000E603F091E703808180688083E091E6038B
:100BD000F091E70380818F7D808361E081E10E9455
:100BE0005F0161E082E10E945F0161E083E10E94B8
:100BF0005F0102E211E061E0D8018D918D010E9458
:100C00005F01B1E00A321B07B1F760E082E00E94A9
:100C10005F0160E083E00E945F0160E084E00E9489
:100C20005F0160E085E00E945F0161E08DE00E946D
:100C30005F0161E08DE00E943101F8941092800024
:100C400010928100109285001092840089EF90E04C
:100C500090938900809388008091810088608093C0
:100C600081008091810083608093810080916F007A
:100C7000826080936F0078948AEF9FEF9C012A52E4
:100C80003340590106E9802E03E0902E84ED93E075
:100C90000E94EE01181619060CF06CC084ED93E06A
:100CA0000E94CC0120918B0330918C0324313105BB
:100CB00008F452C08A3011F081115CC06091720357
:100CC0007091730390E080E00E948C00FC01EA5672
:100CD000FC4F25E420839C012E5F3F4FFC01E95629
:100CE000FC4F8BE38083F901EA56FC4F108268E0E9
:100CF00070E0C9010E948C00A6E9B3E06FEF7FEFBE
:100D00009D01265933402817390770F4ED91E627E5
:100D1000F0E0EE0FFF1FE65DFE4F672F7727208183
:100D2000318162277327ECCF609570950E948C000B
:100D3000F40101900020E9F7AF014759534066E9FB
:100D400073E084ED93E00E9490010E9423031092CF
:100D50008C0310928B030EC0F901EA58FC4F8A30C5
:100D6000B1F08823A1F02F5F3F4F30938C03209385
:100D70008B03808380E090E0892B09F487CF0E9469
:100D8000FA01882309F47ECF0E9400007BCF1082F5
:100D900018861F821E821D821C821B821A82198263
:100DA000109275031092740326E7222E23E0322E50
:100DB0003101F12CE12C30E2532E10E000E0CC2484
:100DC000CA94DC2CD3014D903D01BAE0B4152CF54A
:100DD0008091740390917503892BF9F4E2E0EE168B
:100DE000F10409F477C2E42DEC25F0E0EE0FFF1FCB
:100DF000E65DFE4FCD2CDD2480819181C826D92669
:100E0000FBE34F1255C00F5F1F4F21E0E216F104C4
:100E1000C9F662E0E62EF12CD5CF00917203109155
:100E20007303C094D09489819A81C816D90609F4B5
:100E30001CC187E090E00E94B602B80190E080E01B
:100E40000E948C009C016091740370917503DC0119
:100E5000AA56BC4FAC014E5F5F4FFC01E956FC4FF8
:100E60006115710509F45DC185E48C938BE3808382
:100E7000FA01EA56FC4F1082CA010E948C00AC01B4
:100E80004F5F5F4F8A569C4F2BE5FC012083FA0190
:100E9000EA56FC4FD1018D911D019A012F5F3F4F02
:100EA00090EE980F9F3508F016C18193A901F2CFFB
:100EB0000B3C110509F4C9C0C0F50536110531F127
:100EC00078F40130110509F478C008F469C00230E3
:100ED000110519F00436110579F481E090E06AC03B
:100EE000083C1105D1F358F40636110509F4ADC0DC
:100EF0000736110509F466CF82E090E05BC0093C3B
:100F0000110509F48CC00A3C1105B1F7642DCE011E
:100F100003960E94C102882321F085E090E00E94A0
:100F2000B602EE24E394F12C4DCF003931E01307E3
:100F3000A1F2D0F40D3281E0180709F47BC048F427
:100F40000C3C110509F43ECF0C32B1E01B0729F22D
:100F5000D3CF0E32E1E01E0709F477C00F32F1E083
:100F60001F0709F42FCFC8CF043F21E0120709F46F
:100F7000B4CF58F4013961E0160709F466C00239AC
:100F800081E0180709F41ECFB7CF053FA1E01A078B
:100F900009F45BC0063FB1E01B0709F413CFACCFE7
:100FA000642DCE0107960E94C102882309F40ACF5E
:100FB00083E090E00E94B60205CFE3E54E1609F407
:100FC0004FC0E41564F0F4E44F1609F122E542162F
:100FD00089F081E090E00E94B602542CF3CE36E511
:100FE000431669F067E54612F4CF17E5512E04E683
:100FF00010E0E8CEB2E55B2E0CE211E0E3CEEE2489
:10100000E394F12CA6E55A2E00E911E0DBCEEE24A4
:10101000E394F12CE4E45E2E04EF11E0D3CE642DD2
:10102000CE0105960E94C102882309F4CBCE86E04A
:1010300090E0C0CF642DCE0105960E94C1028823A6
:1010400009F46FCF86E090E06ACF642DCE0101965F
:101050000E94C102882309F4B5CE87E090E0AACFB0
:1010600053E5552E08EC10E0ADCE8F8198858017A2
:10107000910721F084E090E00E94B60283E55816C3
:10108000D9F0A7E55A1649F0B2E55B12D6CE8D81AC
:101090009E81049708F4D1CE13C08B819C81029766
:1010A00020F085E090E00E94B602809171038111EA
:1010B000C4CE89E090E0BFCE8D819E81079718F065
:1010C00086E090E0B8CE8B819C81029708F4B5CE83
:1010D00085E090E0B0CE8DE58083CA0102962A5665
:1010E0003C4F4BE3F9014083FC01EA56FC4F108270
:1010F000A6E9B3E06FEF7FEF9D0126593340281733
:10110000390708F0DDC0ED91E627F0E0EE0FFF1F94
:10111000E65DFE4F672F7727208131816227732795
:10112000EBCF5C92CA016BE36083FA01EA56FC4F95
:10113000108263E5561609F46BC065159CF0A4E4B3
:101140005A1609F4A0C0B2E55B1609F482C02091DA
:101150007203309173032F5F3F4F309373032093DB
:101160007203C6CF66E55616E1F1A7E55A12EFCF36
:1011700061E070E08091600390916103892B11F42C
:1011800070E060E0CA010E948C008C0180915F03D6
:101190008230C9F02B813C81232B89F1F89480E6C1
:1011A0009AEE909361038093600380E395E79093B8
:1011B0005E0380935D0381E080935F03789461E038
:1011C00082E10E94310161E070E0809160039091C2
:1011D0006103892B11F470E060E0C8010E948C006B
:1011E000B6CFA2E3B3E02A0D3B1D4D91C9018A0F92
:1011F0009B1F50EE540F5F35E0F54193F6CF8823E7
:1012000011F30E949D0281E090E10E941803DBCF60
:101210006D817E810E948C002D813E8160E02730AF
:10122000310520F42E593C4FF901608170E00E9495
:101230008C002D813E8127303105C8F461E04B815F
:10124000411101C060E02E593C4FD9016C9370E010
:10125000C5CF6D817E810E948C002D813E8124301E
:10126000310528F427593C4FF9016081F0CF60E047
:10127000EECF2BE32083FC01EA56FC4F108221E0E5
:101280002093710364CF6091020170910301109269
:101290000301109202010E948C0060916D03709115
:1012A0006E0310926E0310926D030E948C00609189
:1012B0006F03709170031092700310926F038ECFC2
:1012C000609570950E948C00D4010D900020E9F784
:1012D000AD0133CDBBE34B12EBCD0F5F1F4F72CD92
:1012E000E4EDF3E01382128288EE93E0A0E0B0E038
:1012F00084839583A683B78380E191E09183808383
:1013000085EC90E09587848784EC90E097878687CA
:1013100080EC90E0918B808B81EC90E0938B828BC2
:1013200082EC90E0958B848B86EC90E0978B868B9B
:10133000118E128E138E148E0895AA1BBB1B51E1C1
:1013400007C0AA1FBB1FA617B70710F0A61BB70B35
:10135000881F991F5A95A9F780959095BC01CD01DA
:101360000895EE0FFF1F0590F491E02D0994F89475
:02137000FFCFAD
:10137200102701000101010000000001000000002F
:1013820030029001BD017D02EE01CC01E0010203B9
:1013920004050708090B0C0F10060000891112231F
:1013A2009B322446AD573665BF74488CC19D5AAFF7
:1013B200D3BE6CCAE5DB7EE9F7F8811008019333EE
:1013C2001A22A5562C47B7753E64C99C408DDBBFD7
:1013D20052AEEDDA64CBFFF976E802218B301002CF
:1013E20099132667AF763444BD554AADC3BC588EB7
:1013F200D19F6EEBE7FA7CC8F5D983310A209112AE
:101402001803A7772E66B5543C45CBBD42ACD99E96
:10141200508FEFFB66EAFDD874C904428D53166102
:101422009F702004A9153227BB364CCEC5DF5EED76
:10143200D7FC6888E1997AABF3BA85520C4397716D
:101442001E60A1142805B3373A26CDDE44CFDFFD56
:1014520056ECE9986089FBBB72AA06638F7214404E
:101462009D512225AB343006B9174EEFC7FE5CCC36
:10147200D5DD6AA9E3B8788AF19B87730E6295502D
:101482001C41A3352A24B1163807CFFF46EEDDDC16
:1014920054CDEBB962A8F99A708B088481951AA78A
:1014A20093B62CC2A5D33EE1B7F04008C919522B1E
:1014B200DB3A644EED5F766DFF7C899400859BB7C5
:1014C20012A6ADD224C3BFF136E0C1184809D33BFE
:1014D2005A2AE55E6C4FF77D7E6C0AA583B41886A6
:1014E20091972EE3A7F23CC0B5D14229CB38500ADE
:1014F200D91B666FEF7E744CFD5D8BB502A4999685
:101502001087AFF326E2BDD034C1C3394A28D11ABD
:10151200580BE77F6E6EF55C7C4D0CC685D71EE5D9
:1015220097F42880A1913AA3B3B2444ACD5B56699D
:10153200DF78600CE91D722FFB3E8DD604C79FF544
:1015420016E4A9902081BBB332A2C55A4C4BD7797D
:101552005E68E11C680DF33F7A2E0EE787F61CC425
:1015620095D52AA1A3B03882B193466BCF7A54485D
:10157200DD59622DEB3C700EF91F8FF706E69DD404
:1015820014C5ABB122A0B9923083C77B4E6AD5583D
:101592005C49E33D6A2CF11E780F4D4853574D4884
:1015A2005357312E325F3478554E50554C53454483
:1015B2000000000000004D4853574D4853570D0A94
:0215C200000027
:00000001FF
