:100000000C9462000C948A000C948A000C948A0070
:100010000C948A000C948A000C948A000C948A0038
:100020000C948A000C948A000C948A000C940F049F
:100030000C948A000C948A000C948A000C948A0018
:100040000C946D030C948A000C94DD030C94B7039C
:100050000C948A000C948A000C948A000C948A00F8
:100060000C948A000C948A000000000024002700F1
:100070002A0000000000250028002B0000000000DE
:1000800023002600290004040404040404040202DA
:100090000202020203030303030301020408102007
:1000A0004080010204081020010204081020000012
:1000B0000008000201000003040700000000000027
:1000C0000000DF0911241FBECFEFD8E0DEBFCDBF97
:1000D00013E0A0E0B1E0E0E5F4E102C005900D928C
:1000E000A035B107D9F724E0A0E5B3E001C01D9227
:1000F000A337B207E1F710E0C2E6D0E004C02197D1
:10010000FE010E94200AC136D107C9F70E94A90545
:100110000C94260A0C940000EF92FF920F931F9309
:10012000CF93DF93FB019C012F5F3F4FDC01A8566B
:10013000BC4F3097A1F480E38C93C90101962856F7
:100140003C4F4BE3F9014083FC01E856FC4F108221
:10015000DF91CF911F910F91FF90EF900895613043
:10016000710511F481E3E8CF9C0105E010E040E067
:10017000C0E1D7E28AE0E82EF12CEC17FD0710F47D
:100180004423A1F0CF01BE010E940C0AD901A85658
:10019000BC4F80E3860F8C936C9FC0016D9F900DC8
:1001A0001124E81BF90B2F5F3F4F41E0CE01B7014F
:1001B0000E940C0AEB0101501109F9F6BECF833001
:1001C00081F028F4813099F08230A9F008958730C9
:1001D000A9F08830C9F08430B1F4809180008F7D1F
:1001E00003C0809180008F7780938000089584B54C
:1001F0008F7784BD089584B58F7DFBCF8091B0004B
:100200008F778093B00008958091B0008F7DF9CFF3
:10021000CF93DF93282F30E0F901E255FF4F84910F
:10022000F901E656FF4FD491F901EA57FF4FC49107
:10023000CC23A1F081110E94DF00EC2FF0E0EE0F43
:10024000FF1FE458FF4FA591B491EC91ED2381E09D
:1002500090E009F480E0DF91CF91089580E090E094
:10026000FACF1F93CF93DF93282F30E0F901E255A7
:10027000FF4F8491F901E656FF4FD491F901EA57F7
:10028000FF4FC491CC23A9F0162F81110E94DF00EB
:10029000EC2FF0E0EE0FFF1FEE58FF4FA591B49149
:1002A0008FB7F894EC91111108C0D095DE23DC9340
:1002B0008FBFDF91CF911F910895DE2BF8CFCF93A1
:1002C000DF9390E0FC01E656FF4F24918A579F4F41
:1002D000FC0184918823D1F090E0880F991FFC01E4
:1002E000E859FF4FA591B491FC01EE58FF4FC5911D
:1002F000D49161110EC09FB7F8948C91E22FE095D4
:100300008E238C932881E223E8839FBFDF91CF91D6
:1003100008958FB7F894EC91E22BEC938FBFF6CF52
:10032000AF92BF92CF92DF92EF92FF920F931F9303
:10033000CF93DF936C017B018B01040F151FEB0141
:100340005E01AE18BF08C017D10759F06991D601F8
:10035000ED91FC910190F081E02DC6010995892B6A
:1003600079F7C501DF91CF911F910F91FF90EF9029
:10037000DF90CF90BF90AF900895FC01538D448DD6
:10038000252F30E0842F90E0821B930B541710F040
:10039000CF96089501970895FC01918D828D98174D
:1003A00061F0A28DAE0FBF2FB11D5D968C91928D25
:1003B0009F5F9F73928F90E008958FEF9FEF089556
:1003C000FC01918D828D981731F0828DE80FF11D1F
:1003D000858D90E008958FEF9FEF0895FC01918D3A
:1003E000228D892F90E0805C9F4F821B91098F7333
:1003F0009927089586ED93E00E94EE0121E0892B74
:1004000009F420E0822F089580E090E0892B29F004
:100410000E94FA0181110C9400000895FC01A48D42
:10042000A80FB92FB11DA35ABF4F2C91848D90E016
:1004300001968F739927848FA689B7892C93A089F9
:10044000B1898C91837080648C93938D848D981383
:1004500006C00288F389E02D80818F7D8083089516
:10046000EF92FF920F931F93CF93DF93EC0181E004
:10047000888F9B8D8C8D98131AC0E889F9898081AB
:1004800085FF15C09FB7F894EE89FF896083E889DE
:10049000F98980818370806480839FBF81E090E0D0
:1004A000DF91CF911F910F91FF90EF900895F62E5D
:1004B0000B8D10E00F5F1F4F0F731127E02E8C8DF7
:1004C0008E110CC00FB607FCFACFE889F98980813C
:1004D00085FFF5CFCE010E940E02F1CFEB8DEC0F20
:1004E000FD2FF11DE35AFF4FF0829FB7F8940B8F59
:1004F000EA89FB8980818062CFCFCF93DF93EC01C3
:10050000888D8823B9F0AA89BB89E889F9898C91FB
:1005100085FD03C0808186FD0DC00FB607FCF7CFB7
:100520008C9185FFF2CF808185FFEDCFCE010E94B7
:100530000E02E9CFDF91CF910895CF93DF93F89426
:1005400082E080935E031092600310925F037894C0
:1005500060E082E10E943101C0915C03D0915D03B3
:10056000209779F060E081E10E9431012197D093DA
:100570005D03C0935C0361E081E1DF91CF910C9456
:100580003101DF91CF91089590915B03911109C0E2
:1005900095E090935B0320E137E230935A03209378
:1005A000590361110CC081110CC080915B03815013
:1005B00080935B038823C9F090E080E00895811167
:1005C000F4CF8091590390915A03019790935A0365
:1005D00080935903892B21F085E080935B03ECCF56
:1005E00010925B0381E090E0089582E090E008952E
:1005F0002091760330917703232B21F49093770396
:10060000809376030895EF92FF920F931F93CF93F9
:10061000DF938C01262F660F330BE901E097CA3078
:10062000D10528F5FC01E080F1808AE08E9DF00183
:100630008F9DF00D1124CF016AE070E00E940C0A3A
:10064000E616F706A1F4CE0FDF1FCE17DF0778F00E
:100650002E0F3F1F20533109F8013183208380E0A2
:10066000DF91CF911F910F91FF90EF90089581E05E
:10067000F7CF8DE00E94080160E0892B09F461E06A
:100680008DE00C943101282F30E090915803F9014E
:10069000E05EFE4F911108C02E5F3E4FD9019C9144
:1006A000911106C0873021F061E080810C94310106
:1006B00060E0FBCF20916C0330916D03232B21F47C
:1006C00090936D0380936C03089542E050E06CE4D6
:1006D00073E086ED93E00C9490011F920F920FB699
:1006E0000F9211242F933F938F939F93AF93BF93B8
:1006F0008091940390919503A0919603B0919703F4
:100700003091930323E0230F2D3758F50196A11D57
:10071000B11D209393038093940390939503A0932A
:100720009603B093970380918F0390919003A091CB
:100730009103B09192030196A11DB11D80938F0387
:1007400090939003A0939103B0939203BF91AF91C4
:100750009F918F913F912F910F900FBE0F901F90FF
:10076000189526E8230F0296A11DB11DD2CF1F9226
:100770000F920FB60F9211242F933F934F935F93D5
:100780006F937F938F939F93AF93BF93EF93FF9359
:1007900086ED93E00E940E02FF91EF91BF91AF9121
:1007A0009F918F917F916F915F914F913F912F9189
:1007B0000F900FBE0F901F9018951F920F920FB6BB
:1007C0000F9211242F938F939F93EF93FF93E091B8
:1007D000E603F091E7038081E091EC03F091ED03F3
:1007E00082FD1BC090818091EF038F5F8F732091FA
:1007F000F003821741F0E091EF03F0E0EA52FC4F82
:10080000958F8093EF03FF91EF919F918F912F919F
:100810000F900FBE0F901F9018958081F4CF1F92FC
:100820000F920FB60F921124EF92FF920F931F9326
:100830002F933F934F935F936F937F938F939F93E8
:10084000AF93BF93CF93DF93EF93FF9361E083E187
:100850000E94310180915803C1E08C278093580396
:10086000609168031092540380915F03909160033C
:10087000892B81F0809171039091720382309105F0
:1008800009F403C108F0B9C0009709F4C0C001978A
:1008900009F4E7C080915F0390916003892BE9F030
:1008A000F89480915F0390916003019790936003A7
:1008B00080935F03789480915F0390916003892B0C
:1008C000C1F480E090E10E945A030E949D02809151
:1008D0005F0390916003892B61F480915E0388230C
:1008E00041F0813021F482E090E10E945A030E949D
:1008F0009D028091540310925403882309F4FCC094
:1009000080915F0390916003892B09F4F5C087E023
:100910000E9443038091550320915C0330915D0355
:10092000232B09F4EEC081110FC061E081E10E9428
:10093000310161E08EE00E94310161E08EE00E94B1
:100940005F0181E08093550391E6E92E93E0F92E53
:1009500000E211E0C0E0F70181917F01882309F4F2
:10096000E2C080915E03813009F0DDC08C2F0E94CF
:100970004303CF5F0F5F1F4FC73069F7CCE1D1E072
:1009800008E613E080E2E82E81E0F82E89910E94CB
:10099000080121E0892B09F420E0F80121938F015F
:1009A000EC16FD0699F78091560390915703009736
:1009B00009F0CDC080915E03813009F4BAC0823065
:1009C00009F4C0C060E083E10E943101FF91EF9122
:1009D000DF91CF91BF91AF919F918F917F916F9157
:1009E0005F914F913F912F911F910F91FF90EF9049
:1009F0000F900FBE0F901F9018958330910509F44A
:100A000055C0049709F046CF0E949D0243CF80E075
:100A10000E94C40281309105E9F0029709F03ACFB3
:100A200080916E0390916F03816090936F03809328
:100A30006E03C093540380E09AE2A5E7B5E180938A
:100A4000500390935103A0935203B093530383E058
:100A500090E013C081E090E00E945A0384E090E0AF
:100A60000CC0C093540381E00E94C4028130910500
:100A700049F08230910509F00DCF90937203809375
:100A8000710308CF82E090E0E7CF80E00E94C402CB
:100A90008130910511F684E090E090937203809389
:100AA000710383E090E00E945A03F4CEC093540394
:100AB00080917003882329F01092700381E090E008
:100AC000DCCF8091500390915103A0915203B091DB
:100AD00053030097A105B10561F00197A109B10980
:100AE0008093500390935103A0935203B093530308
:100AF000D1CE84E090E0B0CF60E086E00E9431018A
:100B000009CF882309F420CF60E081E10E94310100
:100B100060E08EE00E94310160E08EE00E945F01A3
:100B20001092550311CF60E0F80180810E943101DD
:100B300020CF0E94390380ED97E090935703809374
:100B4000560340CF0E94390384E690E0F6CF019728
:100B5000F4CFCF93DF93CDB7DEB728970FB6F894D5
:100B6000DEBF0FBECDBF789484B5826084BD84B5EE
:100B7000816084BD85B5826085BD85B5816085BD98
:100B800080916E00816080936E0010928100809150
:100B900081008260809381008091810081608093D8
:100BA0008100809180008160809380008091B100FD
:100BB00084608093B1008091B00081608093B00028
:100BC00080917A00846080937A0080917A008260BC
:100BD00080937A0080917A00816080937A0080917E
:100BE0007A00806880937A001092C100E091E60359
:100BF000F091E70382E08083E091E203F091E30368
:100C00001082E091E403F091E5038FEC8083109271
:100C1000EE03E091EA03F091EB0386E08083E0913C
:100C2000E803F091E903808180618083E091E8032B
:100C3000F091E903808188608083E091E803F0917E
:100C4000E903808180688083E091E803F091E90303
:100C500080818F7D808361E081E10E945F0161E09E
:100C600082E10E945F0161E083E10E945F0100E296
:100C700011E098E2E92E91E0F92E61E0D8018D9122
:100C80008D010E945F01E016F106B9F760E082E095
:100C90000E945F0160E083E00E945F0160E084E009
:100CA0000E945F0160E085E00E945F0161E08DE0ED
:100CB0000E945F0161E08DE00E943101F894109282
:100CC000800010928100109285001092840089EFBC
:100CD00090E09093890080938800809181008860E3
:100CE0008093810080918100836080938100809156
:100CF0006F00826080936F0078948AEF9FEF9C0171
:100D000028523340590188E9882E83E0982E86EDD9
:100D100093E00E94EE01181619060CF06CC086EDE7
:100D200093E00E94CC0120918D0330918E032431F9
:100D3000310508F452C08A3011F081115CC0609115
:100D400074037091750390E080E00E948C00FC01B8
:100D5000E856FC4F25E420839C012E5F3F4FFC01A9
:100D6000E756FC4F8BE38083F901E856FC4F108275
:100D700068E070E0C9010E948C00A8E9B3E06FEF61
:100D80007FEF9D01285933402817390770F4ED9102
:100D9000E627F0E0EE0FFF1FE85DFE4F672F772795
:100DA0002081318162277327ECCF609570950E9476
:100DB0008C00F40101900020E9F7AF01495953403C
:100DC00068E973E086ED93E00E9490010E9465035C
:100DD00010928E0310928D030EC0F901E858FC4F5B
:100DE0008A30B1F08823A1F02F5F3F4F30938E03FC
:100DF00020938D03808380E090E0892B09F487CFD6
:100E00000E94FA01882309F47ECF0E9400007BCF64
:100E1000108218861F821E821D821C821B821A82EB
:100E20001982109277031092760338E7232E33E06D
:100E3000332E3101F12CE12C40E2542E10E000E081
:100E4000CC24CA94DC2CD3014D903D01BAE0B415FA
:100E50002CF58091760390917703892BF9F4E2E0E9
:100E6000EE16F10409F4A5C2E42DEC25F0E0EE0F36
:100E7000FF1FE85DFE4FCD2CDD2480819181C826C7
:100E8000D926FBE34F1255C00F5F1F4F21E0E2163A
:100E9000F104C9F662E0E62EF12CD5CFC094D094CF
:100EA000009174031091750389819A81C816D9063F
:100EB00009F434C187E090E00E94F802B80190E0A4
:100EC00080E00E948C00AC01609176037091770302
:100ED000DC01A856BC4F9C012E5F3F4FFC01E7563A
:100EE000FC4F6115710509F478C185E48C938BE39F
:100EF0008083F901E856FC4F1082C9010E948C00E2
:100F00009C012F5F3F4F88569C4F4BE5DC014C9373
:100F1000F901E856FC4FD1018D911D01A9014F5FE8
:100F20005F4F90EE980F9F3508F02EC181939A0184
:100F3000F2CF0C3231E01307B9F108F041C00636A8
:100F4000110509F453C020F50230110569F158F478
:100F50000115110509F47DC00130110509F486C0A1
:100F600082E090E080C004361105F1F005361105ED
:100F7000B9F7642DCE0103960E940303882321F064
:100F800085E090E00E94F802EE24E394F12C5BCF20
:100F9000093C110509F4A7C050F40736110509F4FE
:100FA00052CF083C1105E1F681E090E05CC00B3CBB
:100FB0001105E1F0F0F20C3C110509F444CFD0CF5B
:100FC000023961E0160709F43ECF20F50F32A1E0A7
:100FD0001A0709F438CFA8F40D32E1E01E0709F42E
:100FE0008DC00E32F1E01F0709F0BACF642DCE019B
:100FF00001960E940303882309F425CF87E090E03F
:1010000032C0003921E0120779F2013931E01307CB
:1010100069F3A6CF063F41E0140709F414CF50F45A
:10102000043F81E0180709F4BFCF053FA1E01A078C
:10103000E9F296CF0935B2E01B07C1F20A35E2E0CA
:101040001E0709F400CF0835F2E01F0709F088CF2A
:10105000ABCF642DCE0107960E940303882309F4C9
:10106000F2CE83E090E00E94F802EDCE23E5421636
:1010700009F44FC0241564F034E4431661F142E5ED
:101080004416E1F081E090E00E94F802542CDBCE9F
:1010900066E54616C1F087E5481659F0A4E54A1200
:1010A000F1CFEE24E394F12CE4E55E2E08E512E0A6
:1010B000CACE87E5582E04E610E0C5CE02E5502ED4
:1010C0000CE211E0C0CEEE24E394F12C16E5512E93
:1010D00000E911E0B8CEEE24E394F12CA4E45A2EFA
:1010E00004EF11E0B0CE642DCE0105960E940303FB
:1010F000882309F4A8CE86E090E0B5CF642DCE0118
:1011000005960E940303882309F43ECF86E090E011
:1011100039CF53E5552E08EC10E095CE8F81988598
:101120008017910721F084E090E00E94F802B3E577
:101130005B16D9F0E7E55E1649F0F2E55F12BECE28
:101140008D819E81049708F4B9CE13C08B819C8158
:10115000029720F085E090E00E94F80280917303EE
:101160008111ACCE89E090E0A7CE8D819E8107975A
:1011700018F086E090E0A0CE8B819C81029708F465
:101180009DCE85E090E098CE8DE58083C9010296E2
:1011900048565C4F2BE3FA012083FC01E856FC4FD4
:1011A0001082B6010E948C00A8E9B3E06FEF7FEFD8
:1011B0009D01285933402817390708F0F0C0ED91F8
:1011C000E627F0E0EE0FFF1FE85DFE4F672F772761
:1011D0002081318162277327EBCF5C92C9016BE3D9
:1011E0006083F901E856FC4F108263E5561609F456
:1011F0007EC065159CF0A4E45A1609F4B3C0B2E5AC
:101200005B1609F495C020917403309175032F5F2C
:101210003F4F3093750320937403C6CF66E556168F
:10122000A1F0A7E55A1609F1B4E55B12ECCF809165
:1012300071039091720360E0039721F481E0809341
:10124000700361E070E0C90146C0A0E3B3E095011E
:10125000240F351F4D91C9018A0F9B1F50EE540F6B
:101260005F3508F075C04193F5CF61E070E0809183
:101270005F0390916003892B11F470E060E0C90175
:101280000E948C008C0180915E038230C9F02B811A
:101290003C81232B19F1F89480E69AEE9093600339
:1012A00080935F0380E395E790935D0380935C03F5
:1012B00081E080935E03789461E082E10E943101D5
:1012C00061E070E080915F0390916003892B11F4DD
:1012D00070E060E0C8010E948C0095CF882381F304
:1012E0000E949D0281E090E10E945A03E9CF6D8146
:1012F0007E810E948C002D813E8160E02730310587
:1013000020F42F593C4FF901608170E00E948C005D
:101310002D813E8127303105C8F461E04B814111B8
:1013200001C060E02F593C4FD9016C9370E0D3CFDE
:101330006D817E810E948C002D813E81243031059B
:1013400028F428593C4FF9016081F0CF60E0EECFDE
:101350002BE32083FC01E856FC4F108221E0209310
:10136000730351CF6091000170910101109201014E
:10137000109200010E948C0060916C0370916D03CB
:1013800010926D0310926C030E948C0060916E03AA
:1013900070916F0310926F0310926E039CCF609553
:1013A00070950E948C00D4010D900020E9F7AD01EA
:1013B00005CDBBE34B12BDCD0F5F1F4F44CDE6ED16
:1013C000F3E01382128288EE93E0A0E0B0E0848321
:1013D0009583A683B7838EE091E09183808385EC2B
:1013E00090E09587848784EC90E09787868780ECEF
:1013F00090E0918B808B81EC90E0938B828B82ECE0
:1014000090E0958B848B86EC90E0978B868B118E89
:10141000128E138E148E0895AA1BBB1B51E107C0B8
:10142000AA1FBB1FA617B70710F0A61BB70B881F74
:10143000991F5A95A9F780959095BC01CD01089503
:10144000EE0FFF1F0590F491E02D0994F894FFCF63
:101450000100010101000000000100000000300255
:101460009001BD017D02EE01CC01E0010203040503
:101470000708090B0C0F10060000891112239B327C
:101480002446AD573665BF74488CC19D5AAFD3BE54
:101490006CCAE5DB7EE9F7F88110080193331A2264
:1014A000A5562C47B7753E64C99C408DDBBF52AE34
:1014B000EDDA64CBFFF976E802218B301002991344
:1014C0002667AF763444BD554AADC3BC588ED19F14
:1014D0006EEBE7FA7CC8F5D983310A209112180324
:1014E000A7772E66B5543C45CBBD42ACD99E508FF4
:1014F000EFFB66EAFDD874C904428D5316619F70F4
:101500002004A9153227BB364CCEC5DF5EEDD7FCD3
:101510006888E1997AABF3BA85520C4397711E60E3
:10152000A1142805B3373A26CDDE44CFDFFD56ECB3
:10153000E9986089FBBB72AA06638F7214409D51C3
:101540002225AB343006B9174EEFC7FE5CCCD5DD93
:101550006AA9E3B8788AF19B87730E6295501C41A3
:10156000A3352A24B1163807CFFF46EEDDDC54CD73
:10157000EBB962A8F99A708B088481951AA793B683
:101580002CC2A5D33EE1B7F04008C919522BDB3A73
:10159000644EED5F766DFF7C899400859BB712A643
:1015A000ADD224C3BFF136E0C1184809D33B5A2A53
:1015B000E55E6C4FF77D7E6C0AA583B41886919723
:1015C0002EE3A7F23CC0B5D14229CB38500AD91B33
:1015D000666FEF7E744CFD5D8BB502A49996108703
:1015E000AFF326E2BDD034C1C3394A28D11A580B13
:1015F000E77F6E6EF55C7C4D0CC685D71EE597F4D3
:101600002880A1913AA3B3B2444ACD5B5669DF78F2
:10161000600CE91D722FFB3E8DD604C79FF516E4C2
:10162000A9902081BBB332A2C55A4C4BD7795E68D2
:10163000E11C680DF33F7A2E0EE787F61CC495D5A2
:101640002AA1A3B03882B193466BCF7A5448DD59B2
:10165000622DEB3C700EF91F8FF706E69DD414C582
:10166000ABB122A0B9923083C77B4E6AD5585C4992
:10167000E33D6A2CF11E780F4D4853574D485357A0
:10168000312E355F3478554E50554C53454400004B
:10169000000000004D4853574D4853570D0A0000B5
:00000001FF
