:100000000C9462000C948A000C948A000C948A0070
:100010000C948A000C948A000C948A000C948A0038
:100020000C948A000C948A000C948A000C94E403CB
:100030000C948A000C948A000C948A000C948A0018
:100040000C9442030C948A000C94B2030C948C031D
:100050000C948A000C948A000C948A000C948A00F8
:100060000C948A000C948A000000000024002700F1
:100070002A0000000000250028002B0000000000DE
:1000800023002600290004040404040404040202DA
:100090000202020203030303030301020408102007
:1000A0004080010204081020010204081020000012
:1000B0000008000201000003040700000000000027
:1000C0000000430811241FBECFEFD8E0DEBFCDBF34
:1000D00013E0A0E0B1E0E8E1F1E102C005900D928B
:1000E000AE34B107D9F724E0AEE4B3E001C01D920D
:1000F000A136B207E1F710E0C2E6D0E004C02197D4
:10010000FE010E948408C136D107C9F70E94C304CA
:100110000C948A080C940000EF92FF920F931F93A7
:10012000CF93DF93FB019C012F5F3F4FDC01AA5768
:10013000BC4F3097A1F480E38C93C90101962A57F4
:100140003C4F4BE3F9014083FC01EA57FC4F10821E
:10015000DF91CF911F910F91FF90EF900895613043
:10016000710511F481E3E8CF9C0105E010E040E067
:10017000C0E1D7E28AE0E82EF12CEC17FD0710F47D
:100180004423A1F0CF01BE010E947008D901AA57F3
:10019000BC4F80E3860F8C936C9FC0016D9F900DC8
:1001A0001124E81BF90B2F5F3F4F41E0CE01B7014F
:1001B0000E947008EB0101501109F9F6BECF83309F
:1001C00081F028F4813099F08230A9F008958730C9
:1001D000A9F08830C9F08430B1F4809180008F7D1F
:1001E00003C0809180008F7780938000089584B54C
:1001F0008F7784BD089584B58F7DFBCF8091B0004B
:100200008F778093B00008958091B0008F7DF9CFF3
:10021000CF93DF93282F30E0F901E255FF4F84910F
:10022000F901E656FF4FD491F901EA57FF4FC49107
:10023000CC23A1F081110E94DF00EC2FF0E0EE0F43
:10024000FF1FE458FF4FA591B491EC91ED2381E09D
:1002500090E009F480E0DF91CF91089580E090E094
:10026000FACF1F93CF93DF93282F30E0F901E255A7
:10027000FF4F8491F901E656FF4FD491F901EA57F7
:10028000FF4FC491CC23A9F0162F81110E94DF00EB
:10029000EC2FF0E0EE0FFF1FEE58FF4FA591B49149
:1002A0008FB7F894EC91111108C0D095DE23DC9340
:1002B0008FBFDF91CF911F910895DE2BF8CFCF93A1
:1002C000DF9390E0FC01E656FF4F24918A579F4F41
:1002D000FC0184918823D1F090E0880F991FFC01E4
:1002E000E859FF4FA591B491FC01EE58FF4FC5911D
:1002F000D49161110EC09FB7F8948C91E22FE095D4
:100300008E238C932881E223E8839FBFDF91CF91D6
:1003100008958FB7F894EC91E22BEC938FBFF6CF52
:10032000AF92BF92CF92DF92EF92FF920F931F9303
:10033000CF93DF936C017B018B01040F151FEB0141
:100340005E01AE18BF08C017D10759F06991D601F8
:10035000ED91FC910190F081E02DC6010995892B6A
:1003600079F7C501DF91CF911F910F91FF90EF9029
:10037000DF90CF90BF90AF900895FC01538D448DD6
:10038000252F30E0842F90E0821B930B541710F040
:10039000CF96089501970895FC01918D828D98174D
:1003A00061F0A28DAE0FBF2FB11D5D968C91928D25
:1003B0009F5F9F73928F90E008958FEF9FEF089556
:1003C000FC01918D828D981731F0828DE80FF11D1F
:1003D000858D90E008958FEF9FEF0895FC01918D3A
:1003E000228D892F90E0805C9F4F821B91098F7333
:1003F0009927089584EC93E00E94EE0121E0892B77
:1004000009F420E0822F089580E090E0892B29F004
:100410000E94FA0181110C9400000895FC01A48D42
:10042000A80FB92FB11DA35ABF4F2C91848D90E016
:1004300001968F739927848FA689B7892C93A089F9
:10044000B1898C91837080648C93938D848D981383
:1004500006C00288F389E02D80818F7D8083089516
:10046000EF92FF920F931F93CF93DF93EC0181E004
:10047000888F9B8D8C8D98131AC0E889F9898081AB
:1004800085FF15C09FB7F894EE89FF896083E889DE
:10049000F98980818370806480839FBF81E090E0D0
:1004A000DF91CF911F910F91FF90EF900895F62E5D
:1004B0000B8D10E00F5F1F4F0F731127E02E8C8DF7
:1004C0008E110CC00FB607FCFACFE889F98980813C
:1004D00085FFF5CFCE010E940E02F1CFEB8DEC0F20
:1004E000FD2FF11DE35AFF4FF0829FB7F8940B8F59
:1004F000EA89FB8980818062CFCFCF93DF93EC01C3
:10050000888D8823B9F0AA89BB89E889F9898C91FB
:1005100085FD03C0808186FD0DC00FB607FCF7CFB7
:100520008C9185FFF2CF808185FFEDCFCE010E94B7
:100530000E02E9CFDF91CF9108959C019091540371
:100540009230C9F0232BA9F0F89480E69AEE9093AC
:1005500056038093550380E395E79093530380936C
:10056000520381E080935403789460E082E10C941C
:1005700031019923C1F0F89482E0809354031092E2
:10058000560310925503789461E082E10E94310194
:100590008091520390915303009729F00197909313
:1005A00053038093520308952091640330916503AF
:1005B000232B21F49093650380936403809164035B
:1005C000909165030895EF92FF920F931F93CF933D
:1005D000DF938C01262F660F330BE901E097CA30B9
:1005E000D10528F5FC01E080F1808AE08E9DF001C4
:1005F0008F9DF00D1124CF016AE070E00E94700819
:10060000E616F706A1F4CE0FDF1FCE17DF0778F04E
:100610002E0F3F1F20533109F8013183208380E0E2
:10062000DF91CF911F910F91FF90EF90089581E09E
:10063000F7CF8DE00E94080160E0892B09F461E0AA
:100640008DE00C943101282F30E090915103F90195
:10065000E25EFE4F911108C020503F4FD9019C919E
:10066000911106C0873021F061E080810C94310146
:1006700060E0FBCF42E050E06AE473E084EC93E09A
:100680000C9490011F920F920FB60F9211242F938A
:100690003F938F939F93AF93BF93809182039091E9
:1006A0008303A0918403B09185033091810323E0FB
:1006B000230F2D3758F50196A11DB11D20938103FD
:1006C0008093820390938303A0938403B093850364
:1006D00080917D0390917E03A0917F03B091800370
:1006E0000196A11DB11D80937D0390937E03A0937D
:1006F0007F03B0938003BF91AF919F918F913F9102
:100700002F910F900FBE0F901F90189526E8230F82
:100710000296A11DB11DD2CF1F920F920FB60F925C
:1007200011242F933F934F935F936F937F938F93F6
:100730009F93AF93BF93EF93FF9384EC93E00E945A
:100740000E02FF91EF91BF91AF919F918F917F9199
:100750006F915F914F913F912F910F900FBE0F902E
:100760001F9018951F920F920FB60F9211242F937E
:100770008F939F93EF93FF93E091D403F091D50370
:100780008081E091DA03F091DB0382FD1BC0908150
:100790008091DD038F5F8F732091DE03821741F01C
:1007A000E091DD03F0E0EC53FC4F958F8093DD0387
:1007B000FF91EF919F918F912F910F900FBE0F900E
:1007C0001F9018958081F4CF1F920F920FB60F9251
:1007D0001124EF92FF920F931F932F933F934F9308
:1007E0005F936F937F938F939F93AF93BF93CF93B9
:1007F000DF93EF93FF9361E083E10E9431018091E9
:10080000510391E089278093510380915503909182
:100810005603029708F484C0F89480915503909190
:1008200056030197909356038093550378948091D3
:10083000550390915603892B09F477C087E00E94F5
:100840002303D1E080914E03209152033091530352
:10085000232B09F470C081110FC061E081E10E9477
:10086000310161E08EE00E94310161E08EE00E9482
:100870005F0181E080934E0387E5E82E83E0F82E48
:100880000EE111E0C0E0F70181917F01882309F4B6
:1008900064C0DD2309F461C08C2F0E942303CF5F65
:1008A0000F5F1F4FC73079F7CAE1D1E00EE513E0C3
:1008B00089910E94080121E0892B09F420E0F801C8
:1008C00021938F01F1E0CE31DF0791F780914F0343
:1008D00090915003009709F054C0809154038130E7
:1008E00009F441C0823009F447C060E083E10E940E
:1008F0003101FF91EF91DF91CF91BF91AF919F9126
:100900008F917F916F915F914F913F912F911F91A7
:100910000F91FF90EF900F900FBE0F901F901895C2
:1009200090E080E00E949D0282CF60E086E00E941D
:100930003101D0E087CF882309F49ECF60E081E1C8
:100940000E94310160E08EE00E94310160E08EE0A3
:100950000E945F0110924E038FCF60E0F80180810A
:100960000E9431019CCF0E94190380ED97E0909383
:10097000500380934F03B9CF0E94190384E690E09F
:10098000F6CF0197F4CFCF93DF93CDB7DEB728979B
:100990000FB6F894DEBF0FBECDBF789484B58260E9
:1009A00084BD84B5816084BD85B5826085BD85B513
:1009B000816085BD80916E00816080936E00109291
:1009C000810080918100826080938100809181000C
:1009D000816080938100809180008160809380009D
:1009E0008091B10084608093B1008091B0008160FB
:1009F0008093B00080917A00846080937A00809127
:100A00007A00826080937A0080917A00816080937E
:100A10007A0080917A00806880937A001092C100F9
:100A2000E091D403F091D50382E08083E091D0037C
:100A3000F091D1031082E091D203F091D3038FECB7
:100A400080831092DC03E091D803F091D90386E013
:100A50008083E091D603F091D70380818061808309
:100A6000E091D603F091D703808188608083E09184
:100A7000D603F091D703808180688083E091D6030C
:100A8000F091D70380818F7D808361E081E10E94B6
:100A90005F0161E082E10E945F0161E083E10E9409
:100AA0005F010EE111E061E0D8018D918D010E949E
:100AB0005F01B1E006321B07B1F760E082E00E94FF
:100AC0005F0160E083E00E945F0160E084E00E94DB
:100AD0005F0160E085E00E945F0161E08DE00E94BF
:100AE0005F0161E08DE00E943101F8941092800076
:100AF00010928100109285001092840089EF90E09E
:100B00009093890080938800809181008860809311
:100B100081008091810083608093810080916F00CB
:100B2000826080936F0078948AEF9FEF9C01265239
:100B30003340590184EC93E00E94EE011816190627
:100B40000CF06EC084EC93E00E94CC0120917B03FA
:100B500030917C032431310508F454C08A3011F0FF
:100B600081115EC0609162037091630390E080E048
:100B70000E948C00FC01EA57FC4F25E420839C0175
:100B80002E5F3F4FFC01E957FC4F8BE38083F90157
:100B9000EA57FC4F108268E070E0C9010E948C00A7
:100BA000A6E8B3E06FEF7FEF9D012658334028178A
:100BB000390770F4ED91E627F0E0EE0FFF1FEA5DD4
:100BC000FE4F672F77272081318162277327ECCF73
:100BD000609570950E948C0046E853E0FA01019000
:100BE0000020E9F7AF014758534066E873E084EC12
:100BF00093E00E9490010E943A0310927C031092AD
:100C00007B030EC0F901EA59FC4F8A30B1F088230A
:100C1000A1F02F5F3F4F30937C0320937B038083B1
:100C200080E090E0892B09F485CF0E94FA018823A7
:100C300009F480CF0E9400007DCF108218861F82A9
:100C40001E821D821C821B821A82198210926503E9
:100C50001092640316E6612E13E0712E4301D12C2D
:100C6000C12C00E2402E10E000E0EE24EA94FE2CBD
:100C7000D4015D904D01BAE0B5152CF58091640367
:100C800090916503892BF9F4E2E0CE16D10409F4C2
:100C9000F4C1E52DEE25F0E0EE0FFF1FEA5DFE4FFB
:100CA000EF2CFF2480819181E826F926FBE35F1277
:100CB00052C00F5F1F4F21E0C216D104C9F642E0B7
:100CC000C42ED12CD5CF0091620310916303E09420
:100CD000F09489819A81E816F90609F4F8C087E052
:100CE00090E00E94D402B80190E080E00E948C0065
:100CF000AC016091640370916503DC01AA57BC4F9D
:100D00000296FA01E957FC4F6115710509F42CC1EF
:100D100025E42C932BE32083FC01EA57FC4F10823F
:100D20000E948C009C012F5F3F4F8A579C4F4BE5E0
:100D3000DC014C93F901EA57FC4FD3018D913D0141
:100D4000A9014F5F5F4F90EE980F9F3508F0E6C006
:100D500081939A01F2CF0A3C110509F48EC020F567
:100D60000536110509F489C078F40130110509F43C
:100D70005DC008F44EC00230110519F004361105AB
:100D800081F481E090E04FC00736110509F470CF7F
:100D900008F48DC0083C1105A1F3093C110509F4C4
:100DA0007BC082E090E03FC00E3231E0130709F4CF
:100DB0007EC0C8F40C3C110509F45ACF08F477C082
:100DC0000C3261E01607E9F20D3281E0180749F7AD
:100DD000652DCE0105960E94E302882309F458C0D0
:100DE00086E090E053C00039A1E01A0751F230F4D8
:100DF0000F32E1E01E0709F43BCFD3CF0139F1E018
:100E00001F0709F454C0023921E0120709F430CF5A
:100E1000C8CF652DCE0107960E94E302882309F40E
:100E200027CF83E090E00E94D40222CF33E553160F
:100E300009F448C035154CF042E5541689F081E0BC
:100E400090E00E94D402452C13CF66E5561669F057
:100E500087E55812F4CFE7E54E2E04E610E008CF00
:100E600072E5472E0CE211E003CFCC24C394D12CC1
:100E700066E5462E00E911E0FBCE652DCE01039616
:100E80000E94E302882321F085E090E00E94D402D2
:100E9000CC24C394D12CECCE652DCE0105960E94B6
:100EA000E302882309F4E4CE86E090E0BCCF652D10
:100EB000CE0101960E94E302882309F4D9CE87E08F
:100EC00090E0B1CF33E5432E08EC10E0D1CE8F8116
:100ED00098850817190721F084E090E00E94D40259
:100EE000A3E54A16A1F0B7E54B1649F0E2E54E122C
:100EF000FACE8D819E81049708F4F5CE0CC08B81CB
:100F00009C81029708F4EFCE85E090E0EACE8D81D7
:100F10009E810797A0F386E090E0E3CE8DE5808385
:100F20002E5F3F4F4A575C4F8BE3FA018083F901F4
:100F3000EA57FC4F1082A6E8B3E06FEF7FEFCD01D8
:100F4000865893408217930708F093C0ED91E627E7
:100F5000F0E0EE0FFF1FEA5DFE4F672F77278081DD
:100F6000918168277927EBCF4C929C016BE36083DA
:100F7000FC01EA57FC4F108263E5461609F441C0B4
:100F800064155CF0A2E54A1609F45EC00F5F1F4FBE
:100F90001093630300936203CECFB6E54B1619F1AD
:100FA000E7E54E12F3CF61E070E0209155033091F8
:100FB0005603232B11F470E060E00E948C007C014A
:100FC0008B819C810E949D0261E070E080915503BD
:100FD00090915603892B11F470E060E0C7010E94E4
:100FE0008C009C01D3CFAEE2B3E04A0D5B1D8D9126
:100FF0009A012A0F3B1F90EE980F9F3598F5819329
:10100000F6CF6D817E810E948C002D813E8160E053
:101010002730310520F4295A3C4FD9016C9170E0FA
:101020000E948C002D813E812730310558F461E00B
:101030004B81411101C060E0295A3C4FF9016083A6
:1010400070E0CDCF60E0FCCF6D817E810E948C008E
:101050002D813E8124303105A8F7225A3C4FD90119
:101060006C91EECF8BE38083F901EA57FC4F10823D
:101070008DCF60957095C901ADCDFBE35F126BCE4E
:101080000F5F1F4FF5CDE4ECF3E01382128288EE80
:1010900093E0A0E0B0E084839583A683B7838CE0DF
:1010A00091E09183808385EC90E09587848784EC40
:1010B00090E09787868780EC90E0918B808B81EC25
:1010C00090E0938B828B82EC90E0958B848B86EC06
:1010D00090E0978B868B118E128E138E148E08954E
:1010E000AA1BBB1B51E107C0AA1FBB1FA617B7074E
:1010F00010F0A61BB70B881F991F5A95A9F780956A
:101100009095BC01CD010895EE0FFF1F0590F4915D
:08111000E02D0994F894FFCFD3
:101118000101010000000001000000003002900100
:10112800BD017D02EE01CC01E001020304050708C0
:10113800090B0C0F10060000891112239B3224465C
:10114800AD573665BF74488CC19D5AAFD3BE6CCAC3
:10115800E5DB7EE9F7F88110080193331A22A556DA
:101168002C47B7753E64C99C408DDBBF52AEEDDAA3
:1011780064CBFFF976E802218B30100299132667B9
:10118800AF763444BD554AADC3BC588ED19F6EEB83
:10119800E7FA7CC8F5D983310A2091121803A7779A
:1011A8002E66B5543C45CBBD42ACD99E508FEFFB63
:1011B80066EAFDD874C904428D5316619F702004F5
:1011C800A9153227BB364CCEC5DF5EEDD7FC688843
:1011D800E1997AABF3BA85520C4397711E60A1145A
:1011E8002805B3373A26CDDE44CFDFFD56ECE99823
:1011F8006089FBBB72AA06638F7214409D51222539
:10120800AB343006B9174EEFC7FE5CCCD5DD6AA902
:10121800E3B8788AF19B87730E6295501C41A33519
:101228002A24B1163807CFFF46EEDDDC54CDEBB9E2
:1012380062A8F99A708B088481951AA793B62CC274
:10124800A5D33EE1B7F04008C919522BDB3A644EEA
:10125800ED5F766DFF7C899400859BB712A6ADD2B1
:1012680024C3BFF136E0C1184809D33B5A2AE55ECA
:101278006C4FF77D7E6C0AA583B4188691972EE390
:10128800A7F23CC0B5D14229CB38500AD91B666FAA
:10129800EF7E744CFD5D8BB502A499961087AFF371
:1012A80026E2BDD034C1C3394A28D11A580BE77F8A
:1012B8006E6EF55C7C4D0CC685D71EE597F42880CC
:1012C800A1913AA3B3B2444ACD5B5669DF78600C6A
:1012D800E91D722FFB3E8DD604C79FF516E4A99031
:1012E8002081BBB332A2C55A4C4BD7795E68E11C4A
:1012F800680DF33F7A2E0EE787F61CC495D52AA110
:10130800A3B03882B193466BCF7A5448DD59622D29
:10131800EB3C700EF91F8FF706E69DD414C5ABB1F0
:1013280022A0B9923083C77B4E6AD5585C49E33D09
:101338006A2CF11E780F4D4853574D485357312E9C
:10134800305F3478554E50554C53454400000000EA
:0E13580000004D4853574D4853570D0A0000F2
:00000001FF
