:100000000C9462000C948A000C948A000C948A0070
:100010000C948A000C948A000C948A000C948A0038
:100020000C948A000C948A000C948A000C9440046E
:100030000C948A000C948A000C948A000C948A0018
:100040000C949E030C948A000C940E040C94E80308
:100050000C948A000C948A000C948A000C948A00F8
:100060000C948A000C948A000000000024002700F1
:100070002A0000000000250028002B0000000000DE
:1000800023002600290004040404040404040202DA
:100090000202020203030303030301020408102007
:1000A0004080010204081020010204081020000012
:1000B0000008000201000003040700000000000027
:1000C0000000C90A11241FBECFEFD8E0DEBFCDBFAC
:1000D00013E0A0E0B1E0E2EEFBE102C005900D927A
:1000E000A039B107D9F725E0A0E9B3E001C01D921E
:1000F000A831B207E1F710E0C2E6D0E004C02197D2
:10010000FE010E940A0BC136D107C9F70E944506BD
:100110000C94EF0D0C940000AAEDB4E02FEF3FEF2C
:10012000AD014A5D54404817590770F4ED91E2273C
:10013000F0E0EE0FFF1FE15BFE4F232F33274081DE
:10014000518124273527ECCFC901809590950895DA
:10015000EF92FF920F931F93CF93DF93FB019C01CC
:100160002F5F3F4FDC01A652BB4F3097A1F480E3D5
:100170008C93C901019626523B4F4BE3F901408312
:10018000FC01E652FB4F1082DF91CF911F910F913E
:10019000FF90EF9008956130710511F481E3E8CF8D
:1001A0009C0105E010E040E0C0E1D7E28AE0E82EE3
:1001B000F12CEC17FD0710F44423A1F0CF01BE0190
:1001C0000E94F60AD901A652BB4F80E3860F8C939A
:1001D0006C9FC0016D9F900D1124E81BF90B2F5FE0
:1001E0003F4F41E0CE01B7010E94F60AEB010150FA
:1001F0001109F9F6BECFFC01E652FB4F60839C016A
:100200002E5F3F4FFC01E552FB4F8BE38083F901EA
:10021000E652FB4F1082C9010895833081F028F423
:10022000813099F08230A9F008958730A9F08830A4
:10023000C9F08430B1F4809180008F7D03C080913B
:1002400080008F7780938000089584B58F7784BD78
:10025000089584B58F7DFBCF8091B0008F77809318
:10026000B00008958091B0008F7DF9CFCF93DF93D8
:10027000282F30E0F901E255FF4F8491F901E6564D
:10028000FF4FD491F901EA57FF4FC491CC23A1F05D
:1002900081110E940D01EC2FF0E0EE0FFF1FE458DA
:1002A000FF4FA591B491EC91ED2381E090E009F42A
:1002B00080E0DF91CF91089580E090E0FACF1F9326
:1002C000CF93DF93282F30E0F901E255FF4F84915F
:1002D000F901E656FF4FD491F901EA57FF4FC49157
:1002E000CC23A9F0162F81110E940D01EC2FF0E014
:1002F000EE0FFF1FEE58FF4FA591B4918FB7F89402
:10030000EC91111108C0D095DE23DC938FBFDF91F3
:10031000CF911F910895DE2BF8CFCF93DF9390E01C
:10032000FC01E656FF4F24918A579F4FFC018491B0
:100330008823D1F090E0880F991FFC01E859FF4F06
:10034000A591B491FC01EE58FF4FC591D491611174
:100350000EC09FB7F8948C91E22FE0958E238C937A
:100360002881E223E8839FBFDF91CF9108958FB763
:10037000F894EC91E22BEC938FBFF6CFAF92BF9243
:10038000CF92DF92EF92FF920F931F93CF93DF9361
:100390006C017B018B01040F151FEB015E01AE1890
:1003A000BF08C017D10759F06991D601ED91FC91B2
:1003B0000190F081E02DC6010995892B79F7C501DF
:1003C000DF91CF911F910F91FF90EF90DF90CF9031
:1003D000BF90AF900895FC01538D448D252F30E0E0
:1003E000842F90E0821B930B541710F0CF96089542
:1003F00001970895FC01918D828D981761F0A28D6F
:10040000AE0FBF2FB11D5D968C91928D9F5F9F7334
:10041000928F90E008958FEF9FEF0895FC01918DEA
:10042000828D981731F0828DE80FF11D858D90E057
:1004300008958FEF9FEF0895FC01918D228D892FF4
:1004400090E0805C9F4F821B91098F7399270895DC
:100450008DE394E00E941C0221E0892B09F420E046
:10046000822F089580E090E0892B29F00E942802D5
:1004700081110C9400000895FC01A48DA80FB92FE0
:10048000B11DA35ABF4F2C91848D90E001968F73BC
:100490009927848FA689B7892C93A089B1898C91DB
:1004A000837080648C93938D848D981306C002882A
:1004B000F389E02D80818F7D80830895EF92FF92F4
:1004C0000F931F93CF93DF93EC0181E0888F9B8D77
:1004D0008C8D98131AC0E889F989808185FF15C031
:1004E0009FB7F894EE89FF896083E889F989808154
:1004F0008370806480839FBF81E090E0DF91CF9123
:100500001F910F91FF90EF900895F62E0B8D10E044
:100510000F5F1F4F0F731127E02E8C8D8E110CC0B3
:100520000FB607FCFACFE889F989808185FFF5CFFE
:10053000CE010E943C02F1CFEB8DEC0FFD2FF11D9F
:10054000E35AFF4FF0829FB7F8940B8FEA89FB893B
:1005500080818062CFCFCF93DF93EC01888D882399
:10056000B9F0AA89BB89E889F9898C9185FD03C016
:10057000808186FD0DC00FB607FCF7CF8C9185FFFB
:10058000F2CF808185FFEDCFCE010E943C02E9CF02
:10059000DF91CF91089580919D0390919E03892BC7
:1005A00019F081E080939C0380919C030895F89456
:1005B00082E080939F0310929E0310929D03789493
:1005C0008091A0039091A103009729F00197909347
:1005D000A1038093A003089590919B03911109C0FA
:1005E00093E090939B0320E137E230939A032093AA
:1005F000990361110CC081110CC080919B03815043
:1006000080939B038823C9F090E080E008958111D6
:10061000F4CF8091990390919A03019790939A0354
:1006200080939903892B21F083E080939B03ECCF87
:1006300010929B0381E090E0089582E090E008959D
:100640002091B7033091B803232B21F49093B80382
:100650008093B7030895EF92FF920F931F93CF9368
:10066000DF938C01262F660F330BE901E097CA3028
:10067000D10528F5FC01E080F1808AE08E9DF00133
:100680008F9DF00D1124CF016AE070E00E94F60A00
:10069000E616F706A1F4CE0FDF1FCE17DF0778F0BE
:1006A0002E0F3F1F20533109F8013183208380E052
:1006B000DF91CF911F910F91FF90EF90089581E00E
:1006C000F7CF8DE00E94360160E0892B09F461E0EC
:1006D0008DE00C945F01282F30E090919803F90190
:1006E000ED5DFE4F911108C02B5F3E4FD9019C91EB
:1006F000911106C0873021F061E080810C945F0188
:1007000060E0FBCF2091AD033091AE03232B21F4A9
:100710009093AE038093AD030895FC0101900020F7
:10072000E9F73197AF01481B590BBC018DE394E009
:100730000C94BE0189ED93E00C948D031F920F92EF
:100740000FB60F9211242F933F938F939F93AF93E4
:10075000BF938091D5039091D603A091D703B09118
:10076000D8033091D40323E0230F2D3758F5019699
:10077000A11DB11D2093D4038093D5039093D6037C
:10078000A093D703B093D8038091D0039091D10365
:10079000A091D203B091D3030196A11DB11D809306
:1007A000D0039093D103A093D203B093D303BF910E
:1007B000AF919F918F913F912F910F900FBE0F900E
:1007C0001F90189526E8230F0296A11DB11DD2CFC8
:1007D0001F920F920FB60F9211242F933F934F93B6
:1007E0005F936F937F938F939F93AF93BF93EF9399
:1007F000FF938DE394E00E943C02FF91EF91BF9143
:10080000AF919F918F917F916F915F914F913F91A8
:100810002F910F900FBE0F901F9018951F920F925F
:100820000FB60F9211242F938F939F93EF93FF9303
:10083000E0914D04F0914E048081E0915304F091D9
:10084000540482FD1BC09081809156048F5F8F738A
:1008500020915704821741F0E0915604F0E0E35CE8
:10086000FB4F958F80935604FF91EF919F918F914D
:100870002F910F900FBE0F901F9018958081F4CF8D
:100880001F920F920FB60F921124EF92FF920F93C7
:100890001F932F933F934F935F936F937F938F9308
:1008A0009F93AF93BF93CF93DF93EF93FF9361E059
:1008B00083E10E945F0180919803C1E08C278093BF
:1008C0009803D091A903109294030E94CB0288232D
:1008D00081F08091B2039091B3038230910509F4C5
:1008E000FAC008F0AEC0009709F4B5C0019709F44A
:1008F000DDC00E94CB028823A9F0F89480919D036B
:1009000090919E03019790939E0380939D0378940A
:100910000E94CB02811106C080E090E10E94820318
:100920000E94D7020E94CB0281110CC080919F03CC
:10093000882341F0813021F482E090E10E9482031B
:100940000E94D7028091940310929403882309F4A3
:100950006FC10E94CB02882309F46AC187E00E941C
:100960006B03809195032091A0033091A103232B69
:1009700009F463C181110FC061E081E10E945F0150
:1009800061E08EE00E945F0161E08EE00E948D01D7
:1009900081E08093950382EAE82E83E0F82E03E25B
:1009A00011E0C0E0F70181917F01882309F457C16C
:1009B00080919F03813009F052C18C2F0E946B03FC
:1009C000CF5F0F5F1F4FC73069F7CFE1D1E009EA72
:1009D00013E089910E94360121E0892B09F420E07F
:1009E000F80121938F01F1E0C332DF0791F7809185
:1009F000960390919703009709F045C180919F035A
:100A0000813009F432C1823009F438C160E083E1F9
:100A10000E945F01FF91EF91DF91CF91BF91AF9164
:100A20009F918F917F916F915F914F913F912F9106
:100A30001F910F91FF90EF900F900FBE0F901F909E
:100A400018958330910509F4CDC0049709F051CF72
:100A50000E94D7024ECF6D2F80E00E94EC028130C1
:100A60009105E9F0029709F044CF8091AF0390918E
:100A7000B00381609093B0038093AF03C09394035D
:100A800080E09AE2A5E7B5E180939003909391030B
:100A9000A0939203B093930383E090E014C081E0AD
:100AA00090E00E94820384E090E00DC0C093940324
:100AB0006D2F81E00E94EC028130910549F0823077
:100AC000910509F016CF9093B3038093B20311CF31
:100AD00082E090E0E6CF61E082E10E945F01CBB16D
:100AE000DBB100E117E2809102019FEF980F909334
:100AF0000201882319F00115110589F460E082E1F3
:100B00000E945F01012BC9F484E090E09093B3034D
:100B10008093B20383E090E00E948203EACE82E0F9
:100B20000E943601892BF9F201151105E1F2B19B02
:100B3000F6CF01501109B19AF2CFC064DF7B61E0BA
:100B400082E10E945F0100E117E280910001909133
:100B50000101892B59F10115110541F1DBB9CBB91F
:100B6000DBB9CBB9DBB9CBB9DBB9CBB9DBB9CBB925
:100B7000DBB9CBB9DBB9CBB9DBB9CBB9DBB9CBB915
:100B8000DBB9CBB9B19B03C001501109B19A82E026
:100B90000E943601892BC9F28091000190910101D8
:100BA00001979093010180930001CFCF60E082E133
:100BB0000E945F01012B69F08091AF039091B00317
:100BC00081609093B0038093AF0381E0809394039E
:100BD00057CF84E090E09093B3038093B20385E015
:100BE00090E09ACFC09394038091B103882329F0B9
:100BF0001092B10381E090E066CF809190039091D4
:100C00009103A0919203B09193030097A105B105C0
:100C100061F00197A109B10980939003909391032A
:100C2000A0939203B093930364CE84E090E039CF15
:100C300060E086E00E945F0194CE882309F4ABCE89
:100C400060E081E10E945F0160E08EE00E948D0122
:100C500060E08EE00E945F01109295039CCE60E000
:100C6000F80180810E945F01ABCE0E94610380ED9C
:100C700097E09093970380939603C8CE0E946103F8
:100C800084E690E0F6CF0197F4CFCF93DF93CDB712
:100C9000DEB72A970FB6F894DEBF0FBECDBF7894AB
:100CA00084B5826084BD84B5816084BD85B5826071
:100CB00085BD85B5816085BD80916E008160809322
:100CC0006E0010928100809181008260809381008B
:100CD000809181008160809381008091800081609B
:100CE000809380008091B10084608093B1008091F6
:100CF000B00081608093B00080917A00846080931E
:100D00007A0080917A00826080937A0080917A00E4
:100D1000816080937A0080917A00806880937A0065
:100D20001092C100E0914D04F0914E0482E0808366
:100D3000E0914904F0914A041082E0914B04F09153
:100D40004C048FEC808310925504E0915104F09193
:100D5000520486E08083E0914F04F091500480813A
:100D600080618083E0914F04F0915004808188601D
:100D70008083E0914F04F0915004808180688083EB
:100D8000E0914F04F091500480818F7D808361E079
:100D900081E10E948D0161E082E10E948D0161E0AC
:100DA00083E10E948D0103E211E0BBE2EB2EB1E092
:100DB000FB2E61E0D8018D918D010E948D01E0161E
:100DC000F106B9F760E082E00E948D0160E083E007
:100DD0000E948D0160E084E00E948D0160E085E06A
:100DE0000E948D0161E08DE00E948D0161E08DE047
:100DF0000E945F01F894109280001092810010927E
:100E000085001092840089EF90E090938900809390
:100E100088008091810088608093810080918100AA
:100E200083608093810080916F00826080936F0067
:100E30007894A9EDEA2EA3E0FA2E8DE394E00E94C7
:100E40001C02181619060CF041C08DE394E00E94B4
:100E5000FA012091CE033091CF032431310540F1C6
:100E60008A3011F0811132C06091B4037091B503E2
:100E700090E080E00E94A80065E40E94FB0068E02A
:100E800070E00E94A8008C01C8010E948C00BC0187
:100E9000C8010E94A8008AED94E00E948D038FE4AF
:100EA00093E00E948D031092CF031092CE030EC0E8
:100EB000F901E754FC4F8A30B1F08823A1F02F5F8D
:100EC0003F4F3093CF032093CE03808380E090E0A8
:100ED000892B09F4B2CF0E942802882309F4A9CFF4
:100EE0000E940000A6CF108218861F821E821D82DB
:100EF0001C821B821A8219821092B8031092B703C7
:100F0000E9EBF3E0FA87E9872F01B12CA12C70E21D
:100F1000372E10E000E066246A94762CF0E78F2EDE
:100F2000F3E09F2ED2018D912D018B30E4F12091C1
:100F3000B7033091B803232BB1F5B2E0AB16B1047F
:100F400019F1E82FE625F0E0EE0FFF1FE15BFE4F01
:100F5000272D33276080718062267326282F082E64
:100F6000000C330B3F938F93A8E6B3E0BF93AF938E
:100F7000FF92EF920E94170B0E949A030F900F901E
:100F80000F900F900F900F90D2018E916D018B33C7
:100F900091F50F5F1F4FB1E0AB16B10419F682E077
:100FA000A82EB12CBFCF609470948A818F938981D1
:100FB0008F937F926F9282E593E09F938F93FF923E
:100FC000EF920E94170B0E949A030FB6F894DEBFAF
:100FD0000FBECDBFF3E53F1609F4E4C127E5321695
:100FE00009F4A1C182E53812AEC18D819E810497BA
:100FF00008F4A9C1DBC10C32E1E01E0709F46CC0A2
:1010000008F079C00636110509F48BC008F057C006
:101010000230110509F460C0C8F40115110509F486
:10102000C6C00130110509F4E9C01F930F93EAE827
:10103000F3E0FF93EF93FF92EF920E94170B0E9451
:101040009A0382E090E00E942003D1C0043611058B
:1010500009F442C00536110541F76DE773E089EDEB
:1010600093E00E94100B0E949A03D6016C91CE016E
:1010700003960E942B03882321F085E090E00E94D4
:1010800020038C818F938B818F939F928F92FF92FD
:10109000EF920E94170B0E949A036BE773E089EDB1
:1010A00093E00E94100B0E949A030F900F900F90F4
:1010B0000F900F900F90AA24A394B12C33CF093C2A
:1010C000110509F4FDC068F40736110509F42ACFAB
:1010D000083C110509F0A9CF81E090E00E942003AF
:1010E00021CF0B3C1105E9F008F4B7CF0C3C1105FA
:1010F00009F418CF9ACF023921E0120709F412CF70
:10110000B8F50F3291E0190709F40CCF38F50D321C
:10111000B1E01B0709F4ECC00E32E1E01E0709F054
:1011200084CF63E873E089ED93E00E94100B0E9486
:101130009A03F6016081CE0101960E942B03882359
:1011400021F087E090E00E9420038A818F938981BB
:101150008F9386E893E09F938F9343C00039F1E02B
:101160001F0709F4B9CF013921E01207D1F25DCF91
:10117000063F81E0180709F4D5CE50F4043FA1E002
:101180001A0709F4A9CF053FB1E01B0751F24DCF73
:101190000935E2E01E0729F20A35F2E01F0709F4DB
:1011A000C1CE083522E0120709F03FCF95CF6DE69A
:1011B00073E089ED93E00E94100B0E949A03D60120
:1011C0006C91CE0107960E942B03882321F083E0C7
:1011D00090E00E9420038C818F938B818F939F924C
:1011E0008F92FF92EF920E94170B0E949A030F902A
:1011F0000F900F900F900F900F9094CE64E773E0D4
:1012000089ED93E00E94100B0E949A03F601308052
:10121000832D032C000C990B9F933F9287E793E05B
:101220009F938F93FF92EF920E94170B0E949A0355
:101230000F900F900F900F900F900F90F6018081FC
:10124000833509F46DC044F4843461F1823509F0CA
:1012500043CF0CE211E066CE8635B1F0873589F0D8
:10126000843509F039CF6BE773E089ED93E00E9494
:10127000100B0E949A03AA24A394B12C08E512E053
:1012800051CE04E610E04ECE6BE773E089ED93E0BB
:101290000E94100B0E949A03AA24A394B12C00E987
:1012A00011E040CE6BE773E089ED93E00E94100BF4
:1012B0000E949A03AA24A394B12C04EF11E032CE29
:1012C00060E873E089ED93E00E94100B0E949A039E
:1012D000F6016081CE0105960E942B03882321F040
:1012E00086E090E00E9420038E818F938D8176CFDF
:1012F00060E873E089ED93E00E94100B0E949A036E
:10130000D6016C91CE0105960E942B03882321F013
:1013100086E090E00E9420038E818F938D81B4CE71
:1013200008EC10E0FFCD8B819C81029720F085E0D6
:1013300090E00E9420038091B603811104C089E0EF
:1013400090E00E9420036091B4037091B50390E097
:1013500080E00E94A8000091B7031091B803011526
:101360001105E9F165E40E94FB00B8010E94A800A4
:101370009C012F5F3F4F86529B4F4BE5DC014C9306
:10138000F901E652FB4FA985BA858D91BA87A987E5
:10139000A9014F5F5F4F90EE980F9F3588F48193BE
:1013A0009A01F1CF8D819E81079718F086E090E039
:1013B000C8CF8B819C81029730F285E090E0C1CF4D
:1013C0008DE58083C901029646525B4F2BE3FA01FB
:1013D0002083FC01E652FB4F1082B30152CD632DF6
:1013E0000E94FB008C01F3E53F1609F479C0F31568
:1013F00094F024E4321609F4AFC082E5381609F4FB
:1014000090C08091B4039091B50301969093B50379
:101410008093B40339CD96E53916A1F0A7E53A16C5
:1014200001F1B4E53B12EDCF8091B2039091B3038B
:1014300060E0039721F481E08093B10361E070E004
:10144000C80141C0A3E3B1E0F801E652FB4F8D9122
:101450000F5F1F4F90EE980F9F3508F073C0819378
:10146000F6CF0E94CB02682F70E0C8010E94A8004E
:101470008C0180919F038230A9F02B813C81232B2A
:1014800031F1F89480E69AEE90939E0380939D0349
:1014900080E395E79093A1038093A00381E080937C
:1014A0009F0378940E94CB02682F70E0C8010E94CD
:1014B000A80061E070E02091A0033091A103232BEC
:1014C00011F470E060E00E94A8008C019ACF88239C
:1014D00049F30E94D70281E090E10E948203E2CFAB
:1014E0006D817E810E94A8002D813E8160E02730C1
:1014F000310520F42E553C4FF901608170E00E94C7
:10150000A8002D813E8127303105D0F461E04B8168
:10151000411101C060E02E553C4FD9016C9370E041
:10152000D2CF6D817E81C8010E94A8002D813E81AD
:101530002430310528F427553C4FF9016081EFCF65
:1015400060E0EDCF8BE38083F801E652FB4F108221
:1015500081E08093B60355CF60910301709104013F
:1015600010920401109203010E94A8006091AD0343
:101570007091AE031092AE031092AD030E94A800CA
:101580006091AF037091B0031092B0031092AF035B
:101590009ACFEDE3F4E01382128288EE93E0A0E0AC
:1015A000B0E084839583A683B78381E191E0918342
:1015B000808385EC90E09587848784EC90E0978722
:1015C000868780EC90E0918B808B81EC90E0938B10
:1015D000828B82EC90E0958B848B86EC90E0978BED
:1015E000868B118E128E138E148E0895AA1BBB1B30
:1015F00051E107C0AA1FBB1FA617B70710F0A61B13
:10160000B70B881F991F5A95A9F780959095BC0133
:10161000CD010895EE0FFF1F0590F491E02D099480
:10162000FB01DC0101900D920020E1F70895AEE08E
:10163000B0E0EDE1FBE00C94C60D0D891E8986E05B
:101640008C831A8309838FEF9FE79E838D83AE017E
:10165000475E5F4F6F89788DCE0101960E943A0BED
:101660002F813885020F131FF80110822E96E4E0B7
:101670000C94E20DABE0B0E0E0E4FBE00C94B80DBC
:101680007C013B018A01FC0117821682838181FF64
:10169000C8C1CE0101965C01F7019381F30193FD6E
:1016A000859193FF81913F01882309F453C18532CD
:1016B00039F493FD859193FF81913F01853229F49F
:1016C000B70190E00E942A0DE7CF912C212C312CFC
:1016D000FFE1F31538F08B3211F190F4803209F10B
:1016E000833229F137FC3CC020ED280F2A3050F519
:1016F00036FE20C08AE0989E200D1124922E06C04E
:101700008D3291F0803371F7689430F8F30193FDD6
:10171000859193FF81913F018111DACF21C06894B7
:1017200031F8689432F8F2CF689433F8EFCF6894C8
:1017300034F8ECCFEAE02E9E200D1124222E68947E
:1017400035F8E4CF8E3229F436FC04C1689436F8BB
:10175000DDCF8C3619F4689437F8D8CF8836B1F2DB
:10176000982F9F7D95549330E0F08336A1F1833715
:10177000C1F1833509F063C02801F2E04F0E511C1E
:10178000F801C080D180692D70E036FC02C06FEF97
:101790007FEFC6010E94140D4C01689437F8820156
:1017A0000AC00C5F1F4FFFE3F98388248394912CB8
:1017B0006501E89437F833FE2DC0522C8114910452
:1017C00071F5552009F468CFB70180E290E00E94DE
:1017D0002A0D5A94F6CFF801808189830E5F1F4F3E
:1017E000E4CF2801F2E04F0E511CF801C080D180F7
:1017F000692D70E036FC02C06FEF7FEFC6010E94DA
:101800001F0D4C018201D5CFB70180E290E00E940C
:101810002A0D2A942814190409F0B0F7CECFF60146
:1018200037FC859137FE81916F01B70190E00E94EE
:101830002A0D51105A94F1E08F1A9108BFCF8436C7
:1018400019F0893609F077C0F80137FE6BC0608166
:101850007181828193810C5F1F4FF32DFF763F2EA4
:1018600097FF09C090958095709561957F4F8F4F38
:101870009F4F689437F82AE030E0A5010E945A0D86
:10188000C82ECA188C2C432C36FE0CC0E89440F8A5
:10189000C91440F434FE05C032FC03C0F32DFE7EB3
:1018A0004F2E892C44FE95C0FE01EC0DF11D808168
:1018B000803309F087C0242D297E422E842D887024
:1018C000582E43FC95C040FE8FC09C2C821418F407
:1018D0002C0C922C981844FE91C0B70180E390E044
:1018E0000E942A0D42FE09C088E790E041FE02C036
:1018F00088E590E0B7010E942A0DC91408F48AC057
:10190000CA94D12C9FEFC91AD90ACA0CDB1CF60164
:1019100082916F01B70190E00E942A0DAC14BD04C2
:10192000B1F74FCF60817181072E000C880B990BA6
:101930000E5F1F4F92CFD32CE894D4F82AE030E00A
:10194000853739F1232D297FD22E8F3601F148F4C6
:101950008835A9F0F701868197812B96E2E10C94F6
:10196000D40D803749F08837A9F7D4FE02C06894B7
:10197000D2F820E130E00DC06894D4F8F6CF34FE00
:1019800003C0822F8660D82E20E132E002C028E01A
:1019900030E0F801D7FE0FC06081718182819381B0
:1019A0000C5F1F4FA5010E945A0DC82ECA183D2C6E
:1019B000E89437F867CF6081718190E080E00E5F36
:1019C0001F4FF0CF42FC02C0839478CF839483945E
:1019D00075CF842D867809F471CFF6CFB70180E2F8
:1019E00090E00E942A0D83948214C0F3512C73CF8F
:1019F000522C5818821408F46ECFF8CF842D8678B4
:101A000009F47BCF8BE241FE80E247FC8DE2B70117
:101A100090E071CFB70180E390E00E942A0D9A9484
:101A20006CCF8FEF9FEF99CFFC0105906150704014
:101A30000110D8F7809590958E0F9F1F0895FC0197
:101A40006150704001900110D8F7809590958E0FED
:101A50009F1F08950F931F93CF93DF93182F092F84
:101A6000EB018B8181FD09C01FEF0FEF812F902FBC
:101A7000DF91CF911F910F91089582FF14C02E81A5
:101A80003F818C819D81281739073CF4E881F981D9
:101A9000CF0101969983888310838E819F8101965F
:101AA0009F838E83E3CFE885F985812F0995892B64
:101AB000A1F3DACFFA01AA27283051F1203181F1C0
:101AC000E8946F936E7F6E5F7F4F8F4F9F4FAF4F46
:101AD000B1E03ED0B4E03CD0670F781F891F9A1F59
:101AE000A11D680F791F8A1F911DA11D6A0F711D0D
:101AF000811D911DA11D20D009F468943F912AE019
:101B0000269F11243019305D3193DEF6CF01089500
:101B1000462F4770405D4193B3E00FD0C9F7F6CF31
:101B2000462F4F70405D4A3318F0495D31FD4052F9
:101B3000419302D0A9F7EACFB4E0A695979587958F
:101B400077956795BA95C9F700976105710508956E
:101B50009B01AC010A2E069457954795379527951A
:101B6000BA95C9F7620F731F841F951FA01D0895B2
:101B70002F923F924F925F926F927F928F929F929D
:101B8000AF92BF92CF92DF92EF92FF920F931F938B
:101B9000CF93DF93CDB7DEB7CA1BDB0B0FB6F8943C
:101BA000DEBF0FBECDBF09942A88398848885F847C
:101BB0006E847D848C849B84AA84B984C884DF80ED
:101BC000EE80FD800C811B81AA81B981CE0FD11DD1
:101BD0000FB6F894DEBF0FBECDBFED010895F894A7
:021BE000FFCF35
:101BE200F4010501000101010000000001000000F4
:101BF200005E02BE01EB01AB021C02FA010E020200
:101C02000304050708090B0C0F10064D4853574DE6
:101C1200485357545F312E375F3478554E50554CE8
:101C2200534544000000004D4853574D4853570058
:101C320000891112239B322446AD573665BF744882
:101C42008CC19D5AAFD3BE6CCAE5DB7EE9F7F88141
:101C520010080193331A22A5562C47B7753E64C962
:101C62009C408DDBBF52AEEDDA64CBFFF976E80221
:101C7200218B30100299132667AF763444BD554A42
:101C8200ADC3BC588ED19F6EEBE7FA7CC8F5D98301
:101C9200310A2091121803A7772E66B5543C45CB22
:101CA200BD42ACD99E508FEFFB66EAFDD874C904E1
:101CB200428D5316619F702004A9153227BB364C02
:101CC200CEC5DF5EEDD7FC6888E1997AABF3BA85C1
:101CD200520C4397711E60A1142805B3373A26CDE2
:101CE200DE44CFDFFD56ECE9986089FBBB72AA06A1
:101CF200638F7214409D512225AB343006B9174EC2
:101D0200EFC7FE5CCCD5DD6AA9E3B8788AF19B8780
:101D1200730E6295501C41A3352A24B1163807CFA1
:101D2200FF46EEDDDC54CDEBB962A8F99A708B0860
:101D32008481951AA793B62CC2A5D33EE1B7F04091
:101D420008C919522BDB3A644EED5F766DFF7C8930
:101D52009400859BB712A6ADD224C3BFF136E0C171
:101D6200184809D33B5A2AE55E6C4FF77D7E6C0A10
:101D7200A583B4188691972EE3A7F23CC0B5D14251
:101D820029CB38500AD91B666FEF7E744CFD5D8BF0
:101D9200B502A499961087AFF326E2BDD034C1C331
:101DA200394A28D11A580BE77F6E6EF55C7C4D0CD0
:101DB200C685D71EE597F42880A1913AA3B3B24411
:101DC2004ACD5B5669DF78600CE91D722FFB3E8DB0
:101DD200D604C79FF516E4A9902081BBB332A2C5F1
:101DE2005A4C4BD7795E68E11C680DF33F7A2E0E90
:101DF200E787F61CC495D52AA1A3B03882B19346D1
:101E02006BCF7A5448DD59622DEB3C700EF91F8F6F
:101E1200F706E69DD414C5ABB122A0B9923083C7B0
:101E22007B4E6AD5585C49E33D6A2CF11E780F0D52
:101E32000A000A435243733A205B25755D203D3FF9
:101E42003D205B25755D0A007B25637D00465B00B6
:101E520025645D00435B0025635D005800565B000E
:101E6200495B00535B0025755D0045282564290008
:00000001FF
